{
  "contractName": "kittyNft",
  "abi": [
    {
      "inputs": [
        {
          "internalType": "address",
          "name": "_factory",
          "type": "address"
        }
      ],
      "stateMutability": "nonpayable",
      "type": "constructor"
    },
    {
      "anonymous": false,
      "inputs": [
        {
          "indexed": true,
          "internalType": "address",
          "name": "owner",
          "type": "address"
        },
        {
          "indexed": true,
          "internalType": "address",
          "name": "approved",
          "type": "address"
        },
        {
          "indexed": true,
          "internalType": "uint256",
          "name": "tokenId",
          "type": "uint256"
        }
      ],
      "name": "Approval",
      "type": "event"
    },
    {
      "anonymous": false,
      "inputs": [
        {
          "indexed": true,
          "internalType": "address",
          "name": "owner",
          "type": "address"
        },
        {
          "indexed": true,
          "internalType": "address",
          "name": "operator",
          "type": "address"
        },
        {
          "indexed": false,
          "internalType": "bool",
          "name": "approved",
          "type": "bool"
        }
      ],
      "name": "ApprovalForAll",
      "type": "event"
    },
    {
      "anonymous": false,
      "inputs": [
        {
          "indexed": true,
          "internalType": "address",
          "name": "from",
          "type": "address"
        },
        {
          "indexed": true,
          "internalType": "address",
          "name": "to",
          "type": "address"
        },
        {
          "indexed": true,
          "internalType": "uint256",
          "name": "tokenId",
          "type": "uint256"
        }
      ],
      "name": "Transfer",
      "type": "event"
    },
    {
      "inputs": [
        {
          "internalType": "address",
          "name": "to",
          "type": "address"
        },
        {
          "internalType": "uint256",
          "name": "tokenId",
          "type": "uint256"
        }
      ],
      "name": "approve",
      "outputs": [],
      "stateMutability": "nonpayable",
      "type": "function"
    },
    {
      "inputs": [
        {
          "internalType": "address",
          "name": "",
          "type": "address"
        },
        {
          "internalType": "uint256",
          "name": "",
          "type": "uint256"
        }
      ],
      "name": "awardedNFTs",
      "outputs": [
        {
          "internalType": "uint256",
          "name": "",
          "type": "uint256"
        }
      ],
      "stateMutability": "view",
      "type": "function",
      "constant": true
    },
    {
      "inputs": [
        {
          "internalType": "address",
          "name": "owner",
          "type": "address"
        }
      ],
      "name": "balanceOf",
      "outputs": [
        {
          "internalType": "uint256",
          "name": "",
          "type": "uint256"
        }
      ],
      "stateMutability": "view",
      "type": "function",
      "constant": true
    },
    {
      "inputs": [
        {
          "internalType": "uint256",
          "name": "",
          "type": "uint256"
        }
      ],
      "name": "description",
      "outputs": [
        {
          "internalType": "string",
          "name": "",
          "type": "string"
        }
      ],
      "stateMutability": "view",
      "type": "function",
      "constant": true
    },
    {
      "inputs": [],
      "name": "factory",
      "outputs": [
        {
          "internalType": "address",
          "name": "",
          "type": "address"
        }
      ],
      "stateMutability": "view",
      "type": "function",
      "constant": true
    },
    {
      "inputs": [
        {
          "internalType": "uint256",
          "name": "tokenId",
          "type": "uint256"
        }
      ],
      "name": "getApproved",
      "outputs": [
        {
          "internalType": "address",
          "name": "",
          "type": "address"
        }
      ],
      "stateMutability": "view",
      "type": "function",
      "constant": true
    },
    {
      "inputs": [
        {
          "internalType": "address",
          "name": "owner",
          "type": "address"
        },
        {
          "internalType": "address",
          "name": "operator",
          "type": "address"
        }
      ],
      "name": "isApprovedForAll",
      "outputs": [
        {
          "internalType": "bool",
          "name": "",
          "type": "bool"
        }
      ],
      "stateMutability": "view",
      "type": "function",
      "constant": true
    },
    {
      "inputs": [],
      "name": "lottery",
      "outputs": [
        {
          "internalType": "address",
          "name": "",
          "type": "address"
        }
      ],
      "stateMutability": "view",
      "type": "function",
      "constant": true
    },
    {
      "inputs": [],
      "name": "name",
      "outputs": [
        {
          "internalType": "string",
          "name": "",
          "type": "string"
        }
      ],
      "stateMutability": "view",
      "type": "function",
      "constant": true
    },
    {
      "inputs": [],
      "name": "owner",
      "outputs": [
        {
          "internalType": "address",
          "name": "",
          "type": "address"
        }
      ],
      "stateMutability": "view",
      "type": "function",
      "constant": true
    },
    {
      "inputs": [
        {
          "internalType": "uint256",
          "name": "tokenId",
          "type": "uint256"
        }
      ],
      "name": "ownerOf",
      "outputs": [
        {
          "internalType": "address",
          "name": "",
          "type": "address"
        }
      ],
      "stateMutability": "view",
      "type": "function",
      "constant": true
    },
    {
      "inputs": [
        {
          "internalType": "uint256",
          "name": "",
          "type": "uint256"
        }
      ],
      "name": "rank",
      "outputs": [
        {
          "internalType": "uint256",
          "name": "",
          "type": "uint256"
        }
      ],
      "stateMutability": "view",
      "type": "function",
      "constant": true
    },
    {
      "inputs": [
        {
          "internalType": "address",
          "name": "from",
          "type": "address"
        },
        {
          "internalType": "address",
          "name": "to",
          "type": "address"
        },
        {
          "internalType": "uint256",
          "name": "tokenId",
          "type": "uint256"
        }
      ],
      "name": "safeTransferFrom",
      "outputs": [],
      "stateMutability": "nonpayable",
      "type": "function"
    },
    {
      "inputs": [
        {
          "internalType": "address",
          "name": "from",
          "type": "address"
        },
        {
          "internalType": "address",
          "name": "to",
          "type": "address"
        },
        {
          "internalType": "uint256",
          "name": "tokenId",
          "type": "uint256"
        },
        {
          "internalType": "bytes",
          "name": "data",
          "type": "bytes"
        }
      ],
      "name": "safeTransferFrom",
      "outputs": [],
      "stateMutability": "nonpayable",
      "type": "function"
    },
    {
      "inputs": [
        {
          "internalType": "address",
          "name": "operator",
          "type": "address"
        },
        {
          "internalType": "bool",
          "name": "approved",
          "type": "bool"
        }
      ],
      "name": "setApprovalForAll",
      "outputs": [],
      "stateMutability": "nonpayable",
      "type": "function"
    },
    {
      "inputs": [
        {
          "internalType": "bytes4",
          "name": "interfaceId",
          "type": "bytes4"
        }
      ],
      "name": "supportsInterface",
      "outputs": [
        {
          "internalType": "bool",
          "name": "",
          "type": "bool"
        }
      ],
      "stateMutability": "view",
      "type": "function",
      "constant": true
    },
    {
      "inputs": [],
      "name": "symbol",
      "outputs": [
        {
          "internalType": "string",
          "name": "",
          "type": "string"
        }
      ],
      "stateMutability": "view",
      "type": "function",
      "constant": true
    },
    {
      "inputs": [
        {
          "internalType": "uint256",
          "name": "tokenId",
          "type": "uint256"
        }
      ],
      "name": "tokenURI",
      "outputs": [
        {
          "internalType": "string",
          "name": "",
          "type": "string"
        }
      ],
      "stateMutability": "view",
      "type": "function",
      "constant": true
    },
    {
      "inputs": [
        {
          "internalType": "address",
          "name": "from",
          "type": "address"
        },
        {
          "internalType": "address",
          "name": "to",
          "type": "address"
        },
        {
          "internalType": "uint256",
          "name": "tokenId",
          "type": "uint256"
        }
      ],
      "name": "transferFrom",
      "outputs": [],
      "stateMutability": "nonpayable",
      "type": "function"
    },
    {
      "inputs": [
        {
          "internalType": "address",
          "name": "_lottery",
          "type": "address"
        }
      ],
      "name": "setLotteryAddress",
      "outputs": [],
      "stateMutability": "nonpayable",
      "type": "function"
    },
    {
      "inputs": [
        {
          "internalType": "uint256",
          "name": "class",
          "type": "uint256"
        }
      ],
      "name": "mint",
      "outputs": [],
      "stateMutability": "nonpayable",
      "type": "function"
    },
    {
      "inputs": [
        {
          "internalType": "uint256",
          "name": "class",
          "type": "uint256"
        }
      ],
      "name": "getTokenOfClass",
      "outputs": [
        {
          "internalType": "uint256",
          "name": "",
          "type": "uint256"
        }
      ],
      "stateMutability": "view",
      "type": "function",
      "constant": true
    },
    {
      "inputs": [
        {
          "internalType": "address",
          "name": "player",
          "type": "address"
        },
        {
          "internalType": "uint256",
          "name": "tokenId",
          "type": "uint256"
        }
      ],
      "name": "awardItem",
      "outputs": [],
      "stateMutability": "nonpayable",
      "type": "function"
    },
    {
      "inputs": [
        {
          "internalType": "address",
          "name": "addr",
          "type": "address"
        }
      ],
      "name": "getNFTsFromAddress",
      "outputs": [
        {
          "internalType": "string[]",
          "name": "",
          "type": "string[]"
        }
      ],
      "stateMutability": "view",
      "type": "function",
      "constant": true
    }
  ],
  "bytecode": "0x60806040523480156200001157600080fd5b5060405162003802380380620038028339818101604052810190620000379190620001bc565b6040518060400160405280600881526020017f6b697474794e66740000000000000000000000000000000000000000000000008152506040518060400160405280600581526020017f6b697474790000000000000000000000000000000000000000000000000000008152508160009081620000b4919062000468565b508060019081620000c6919062000468565b50505033600760006101000a81548173ffffffffffffffffffffffffffffffffffffffff021916908373ffffffffffffffffffffffffffffffffffffffff16021790555080600960006101000a81548173ffffffffffffffffffffffffffffffffffffffff021916908373ffffffffffffffffffffffffffffffffffffffff160217905550506200054f565b600080fd5b600073ffffffffffffffffffffffffffffffffffffffff82169050919050565b6000620001848262000157565b9050919050565b620001968162000177565b8114620001a257600080fd5b50565b600081519050620001b6816200018b565b92915050565b600060208284031215620001d557620001d462000152565b5b6000620001e584828501620001a5565b91505092915050565b600081519050919050565b7f4e487b7100000000000000000000000000000000000000000000000000000000600052604160045260246000fd5b7f4e487b7100000000000000000000000000000000000000000000000000000000600052602260045260246000fd5b600060028204905060018216806200027057607f821691505b60208210810362000286576200028562000228565b5b50919050565b60008190508160005260206000209050919050565b60006020601f8301049050919050565b600082821b905092915050565b600060088302620002f07fffffffffffffffffffffffffffffffffffffffffffffffffffffffffffffffff82620002b1565b620002fc8683620002b1565b95508019841693508086168417925050509392505050565b6000819050919050565b6000819050919050565b600062000349620003436200033d8462000314565b6200031e565b62000314565b9050919050565b6000819050919050565b620003658362000328565b6200037d620003748262000350565b848454620002be565b825550505050565b600090565b6200039462000385565b620003a18184846200035a565b505050565b5b81811015620003c957620003bd6000826200038a565b600181019050620003a7565b5050565b601f8211156200041857620003e2816200028c565b620003ed84620002a1565b81016020851015620003fd578190505b620004156200040c85620002a1565b830182620003a6565b50505b505050565b600082821c905092915050565b60006200043d600019846008026200041d565b1980831691505092915050565b60006200045883836200042a565b9150826002028217905092915050565b6200047382620001ee565b67ffffffffffffffff8111156200048f576200048e620001f9565b5b6200049b825462000257565b620004a8828285620003cd565b600060209050601f831160018114620004e05760008415620004cb578287015190505b620004d785826200044a565b86555062000547565b601f198416620004f0866200028c565b60005b828110156200051a57848901518255600182019150602085019450602081019050620004f3565b868310156200053a578489015162000536601f8916826200042a565b8355505b6001600288020188555050505b505050505050565b6132a3806200055f6000396000f3fe608060405234801561001057600080fd5b50600436106101585760003560e01c806395d89b41116100c3578063b88d4fde1161007c578063b88d4fde146103fb578063ba13a57214610417578063c45a015514610435578063c87b56dd14610453578063dd51411814610483578063e985e9c5146104b357610158565b806395d89b4114610315578063a0712d6814610333578063a22cb4651461034f578063a3f003531461036b578063ad4e59d51461039b578063b37c191b146103cb57610158565b80632a332b2a116101155780632a332b2a1461022f5780632c5f13e01461024b57806342842e0e1461027b5780636352211e1461029757806370a08231146102c75780638da5cb5b146102f757610158565b806301ffc9a71461015d57806306fdde031461018d578063081812fc146101ab578063095ea7b3146101db578063144c9d4c146101f757806323b872dd14610213575b600080fd5b61017760048036038101906101729190611ef1565b6104e3565b6040516101849190611f39565b60405180910390f35b6101956105c5565b6040516101a29190611fe4565b60405180910390f35b6101c560048036038101906101c0919061203c565b610657565b6040516101d291906120aa565b60405180910390f35b6101f560048036038101906101f091906120f1565b61069d565b005b610211600480360381019061020c91906120f1565b6107b4565b005b61022d60048036038101906102289190612131565b61091d565b005b61024960048036038101906102449190612184565b61097d565b005b6102656004803603810190610260919061203c565b610aa1565b6040516102729190611fe4565b60405180910390f35b61029560048036038101906102909190612131565b610b41565b005b6102b160048036038101906102ac919061203c565b610b61565b6040516102be91906120aa565b60405180910390f35b6102e160048036038101906102dc9190612184565b610c12565b6040516102ee91906121c0565b60405180910390f35b6102ff610cc9565b60405161030c91906120aa565b60405180910390f35b61031d610cef565b60405161032a9190611fe4565b60405180910390f35b61034d6004803603810190610348919061203c565b610d81565b005b61036960048036038101906103649190612207565b610e29565b005b61038560048036038101906103809190612184565b610e3f565b6040516103929190612353565b60405180910390f35b6103b560048036038101906103b0919061203c565b61102f565b6040516103c291906121c0565b60405180910390f35b6103e560048036038101906103e0919061203c565b61104c565b6040516103f291906121c0565b60405180910390f35b610415600480360381019061041091906124aa565b611064565b005b61041f6110c6565b60405161042c91906120aa565b60405180910390f35b61043d6110ec565b60405161044a91906120aa565b60405180910390f35b61046d6004803603810190610468919061203c565b611112565b60405161047a9190611fe4565b60405180910390f35b61049d600480360381019061049891906120f1565b61117a565b6040516104aa91906121c0565b60405180910390f35b6104cd60048036038101906104c8919061252d565b6111ab565b6040516104da9190611f39565b60405180910390f35b60007f80ac58cd000000000000000000000000000000000000000000000000000000007bffffffffffffffffffffffffffffffffffffffffffffffffffffffff1916827bffffffffffffffffffffffffffffffffffffffffffffffffffffffff191614806105ae57507f5b5e139f000000000000000000000000000000000000000000000000000000007bffffffffffffffffffffffffffffffffffffffffffffffffffffffff1916827bffffffffffffffffffffffffffffffffffffffffffffffffffffffff1916145b806105be57506105bd8261123f565b5b9050919050565b6060600080546105d49061259c565b80601f01602080910402602001604051908101604052809291908181526020018280546106009061259c565b801561064d5780601f106106225761010080835404028352916020019161064d565b820191906000526020600020905b81548152906001019060200180831161063057829003601f168201915b5050505050905090565b6000610662826112a9565b6004600083815260200190815260200160002060009054906101000a900473ffffffffffffffffffffffffffffffffffffffff169050919050565b60006106a882610b61565b90508073ffffffffffffffffffffffffffffffffffffffff168373ffffffffffffffffffffffffffffffffffffffff1603610718576040517f08c379a000000000000000000000000000000000000000000000000000000000815260040161070f9061263f565b60405180910390fd5b8073ffffffffffffffffffffffffffffffffffffffff166107376112f4565b73ffffffffffffffffffffffffffffffffffffffff1614806107665750610765816107606112f4565b6111ab565b5b6107a5576040517f08c379a000000000000000000000000000000000000000000000000000000000815260040161079c906126d1565b60405180910390fd5b6107af83836112fc565b505050565b600860009054906101000a900473ffffffffffffffffffffffffffffffffffffffff1673ffffffffffffffffffffffffffffffffffffffff163373ffffffffffffffffffffffffffffffffffffffff1614610844576040517f08c379a000000000000000000000000000000000000000000000000000000000815260040161083b90612763565b60405180910390fd5b610871600760009054906101000a900473ffffffffffffffffffffffffffffffffffffffff168383610b41565b6000600190505b600881116109185781600a6000838152602001908152602001600020540361090557600c60008473ffffffffffffffffffffffffffffffffffffffff1673ffffffffffffffffffffffffffffffffffffffff168152602001908152602001600020819080600181540180825580915050600190039060005260206000200160009091909190915055610918565b8080610910906127b2565b915050610878565b505050565b61092e6109286112f4565b826113b5565b61096d576040517f08c379a00000000000000000000000000000000000000000000000000000000081526004016109649061286c565b60405180910390fd5b61097883838361144a565b505050565b600960009054906101000a900473ffffffffffffffffffffffffffffffffffffffff1673ffffffffffffffffffffffffffffffffffffffff163373ffffffffffffffffffffffffffffffffffffffff1614610a0d576040517f08c379a0000000000000000000000000000000000000000000000000000000008152600401610a04906128fe565b60405180910390fd5b80600860006101000a81548173ffffffffffffffffffffffffffffffffffffffff021916908373ffffffffffffffffffffffffffffffffffffffff160217905550610a9e600760009054906101000a900473ffffffffffffffffffffffffffffffffffffffff16600860009054906101000a900473ffffffffffffffffffffffffffffffffffffffff1660016116b0565b50565b600b6020528060005260406000206000915090508054610ac09061259c565b80601f0160208091040260200160405190810160405280929190818152602001828054610aec9061259c565b8015610b395780601f10610b0e57610100808354040283529160200191610b39565b820191906000526020600020905b815481529060010190602001808311610b1c57829003601f168201915b505050505081565b610b5c83838360405180602001604052806000815250611064565b505050565b6000806002600084815260200190815260200160002060009054906101000a900473ffffffffffffffffffffffffffffffffffffffff169050600073ffffffffffffffffffffffffffffffffffffffff168173ffffffffffffffffffffffffffffffffffffffff1603610c09576040517f08c379a0000000000000000000000000000000000000000000000000000000008152600401610c009061296a565b60405180910390fd5b80915050919050565b60008073ffffffffffffffffffffffffffffffffffffffff168273ffffffffffffffffffffffffffffffffffffffff1603610c82576040517f08c379a0000000000000000000000000000000000000000000000000000000008152600401610c79906129fc565b60405180910390fd5b600360008373ffffffffffffffffffffffffffffffffffffffff1673ffffffffffffffffffffffffffffffffffffffff168152602001908152602001600020549050919050565b600760009054906101000a900473ffffffffffffffffffffffffffffffffffffffff1681565b606060018054610cfe9061259c565b80601f0160208091040260200160405190810160405280929190818152602001828054610d2a9061259c565b8015610d775780601f10610d4c57610100808354040283529160200191610d77565b820191906000526020600020905b815481529060010190602001808311610d5a57829003601f168201915b5050505050905090565b6000610d8d600661181c565b9050610d99600661182a565b610dc5600760009054906101000a900473ffffffffffffffffffffffffffffffffffffffff1682611840565b80600a600084815260200190815260200160002081905550610de68261185e565b604051602001610df69190612aa4565b604051602081830303815290604052600b60008481526020019081526020016000209081610e249190612c72565b505050565b610e3b610e346112f4565b83836116b0565b5050565b60606000600c60008473ffffffffffffffffffffffffffffffffffffffff1673ffffffffffffffffffffffffffffffffffffffff168152602001908152602001600020805480602002602001604051908101604052809291908181526020018280548015610ecc57602002820191906000526020600020905b815481526020019060010190808311610eb8575b50505050509050606060008251111561102557815167ffffffffffffffff811115610efa57610ef961237f565b5b604051908082528060200260200182016040528015610f2d57816020015b6060815260200190600190039081610f185790505b50905060005b825181101561102357600b6000848381518110610f5357610f52612d44565b5b602002602001015181526020019081526020016000208054610f749061259c565b80601f0160208091040260200160405190810160405280929190818152602001828054610fa09061259c565b8015610fed5780601f10610fc257610100808354040283529160200191610fed565b820191906000526020600020905b815481529060010190602001808311610fd057829003601f168201915b505050505082828151811061100557611004612d44565b5b6020026020010181905250808061101b906127b2565b915050610f33565b505b8092505050919050565b6000600a6000838152602001908152602001600020549050919050565b600a6020528060005260406000206000915090505481565b61107561106f6112f4565b836113b5565b6110b4576040517f08c379a00000000000000000000000000000000000000000000000000000000081526004016110ab9061286c565b60405180910390fd5b6110c0848484846119be565b50505050565b600860009054906101000a900473ffffffffffffffffffffffffffffffffffffffff1681565b600960009054906101000a900473ffffffffffffffffffffffffffffffffffffffff1681565b606061111d826112a9565b6000611127611a1a565b905060008151116111475760405180602001604052806000815250611172565b806111518461185e565b604051602001611162929190612d73565b6040516020818303038152906040525b915050919050565b600c602052816000526040600020818154811061119657600080fd5b90600052602060002001600091509150505481565b6000600560008473ffffffffffffffffffffffffffffffffffffffff1673ffffffffffffffffffffffffffffffffffffffff16815260200190815260200160002060008373ffffffffffffffffffffffffffffffffffffffff1673ffffffffffffffffffffffffffffffffffffffff16815260200190815260200160002060009054906101000a900460ff16905092915050565b60007f01ffc9a7000000000000000000000000000000000000000000000000000000007bffffffffffffffffffffffffffffffffffffffffffffffffffffffff1916827bffffffffffffffffffffffffffffffffffffffffffffffffffffffff1916149050919050565b6112b281611a31565b6112f1576040517f08c379a00000000000000000000000000000000000000000000000000000000081526004016112e89061296a565b60405180910390fd5b50565b600033905090565b816004600083815260200190815260200160002060006101000a81548173ffffffffffffffffffffffffffffffffffffffff021916908373ffffffffffffffffffffffffffffffffffffffff160217905550808273ffffffffffffffffffffffffffffffffffffffff1661136f83610b61565b73ffffffffffffffffffffffffffffffffffffffff167f8c5be1e5ebec7d5bd14f71427d1e84f3dd0314c0f7b2291e5b200ac8c7c3b92560405160405180910390a45050565b6000806113c183610b61565b90508073ffffffffffffffffffffffffffffffffffffffff168473ffffffffffffffffffffffffffffffffffffffff161480611403575061140281856111ab565b5b8061144157508373ffffffffffffffffffffffffffffffffffffffff1661142984610657565b73ffffffffffffffffffffffffffffffffffffffff16145b91505092915050565b8273ffffffffffffffffffffffffffffffffffffffff1661146a82610b61565b73ffffffffffffffffffffffffffffffffffffffff16146114c0576040517f08c379a00000000000000000000000000000000000000000000000000000000081526004016114b790612e09565b60405180910390fd5b600073ffffffffffffffffffffffffffffffffffffffff168273ffffffffffffffffffffffffffffffffffffffff160361152f576040517f08c379a000000000000000000000000000000000000000000000000000000000815260040161152690612e9b565b60405180910390fd5b61153a838383611a9d565b6115456000826112fc565b6001600360008573ffffffffffffffffffffffffffffffffffffffff1673ffffffffffffffffffffffffffffffffffffffff16815260200190815260200160002060008282546115959190612ebb565b925050819055506001600360008473ffffffffffffffffffffffffffffffffffffffff1673ffffffffffffffffffffffffffffffffffffffff16815260200190815260200160002060008282546115ec9190612eef565b92505081905550816002600083815260200190815260200160002060006101000a81548173ffffffffffffffffffffffffffffffffffffffff021916908373ffffffffffffffffffffffffffffffffffffffff160217905550808273ffffffffffffffffffffffffffffffffffffffff168473ffffffffffffffffffffffffffffffffffffffff167fddf252ad1be2c89b69c2b068fc378daa952ba7f163c4a11628f55a4df523b3ef60405160405180910390a46116ab838383611aa2565b505050565b8173ffffffffffffffffffffffffffffffffffffffff168373ffffffffffffffffffffffffffffffffffffffff160361171e576040517f08c379a000000000000000000000000000000000000000000000000000000000815260040161171590612f6f565b60405180910390fd5b80600560008573ffffffffffffffffffffffffffffffffffffffff1673ffffffffffffffffffffffffffffffffffffffff16815260200190815260200160002060008473ffffffffffffffffffffffffffffffffffffffff1673ffffffffffffffffffffffffffffffffffffffff16815260200190815260200160002060006101000a81548160ff0219169083151502179055508173ffffffffffffffffffffffffffffffffffffffff168373ffffffffffffffffffffffffffffffffffffffff167f17307eab39ab6107e8899845ad3d59bd9653f200f220920489ca2b5937696c318360405161180f9190611f39565b60405180910390a3505050565b600081600001549050919050565b6001816000016000828254019250508190555050565b61185a828260405180602001604052806000815250611aa7565b5050565b6060600082036118a5576040518060400160405280600181526020017f300000000000000000000000000000000000000000000000000000000000000081525090506119b9565b600082905060005b600082146118d75780806118c0906127b2565b915050600a826118d09190612fbe565b91506118ad565b60008167ffffffffffffffff8111156118f3576118f261237f565b5b6040519080825280601f01601f1916602001820160405280156119255781602001600182028036833780820191505090505b5090505b600085146119b25760018261193e9190612ebb565b9150600a8561194d9190612fef565b60306119599190612eef565b60f81b81838151811061196f5761196e612d44565b5b60200101907effffffffffffffffffffffffffffffffffffffffffffffffffffffffffffff1916908160001a905350600a856119ab9190612fbe565b9450611929565b8093505050505b919050565b6119c984848461144a565b6119d584848484611b02565b611a14576040517f08c379a0000000000000000000000000000000000000000000000000000000008152600401611a0b90613092565b60405180910390fd5b50505050565b606060405180602001604052806000815250905090565b60008073ffffffffffffffffffffffffffffffffffffffff166002600084815260200190815260200160002060009054906101000a900473ffffffffffffffffffffffffffffffffffffffff1673ffffffffffffffffffffffffffffffffffffffff1614159050919050565b505050565b505050565b611ab18383611c89565b611abe6000848484611b02565b611afd576040517f08c379a0000000000000000000000000000000000000000000000000000000008152600401611af490613092565b60405180910390fd5b505050565b6000611b238473ffffffffffffffffffffffffffffffffffffffff16611e62565b15611c7c578373ffffffffffffffffffffffffffffffffffffffff1663150b7a02611b4c6112f4565b8786866040518563ffffffff1660e01b8152600401611b6e9493929190613107565b6020604051808303816000875af1925050508015611baa57506040513d601f19601f82011682018060405250810190611ba79190613168565b60015b611c2c573d8060008114611bda576040519150601f19603f3d011682016040523d82523d6000602084013e611bdf565b606091505b506000815103611c24576040517f08c379a0000000000000000000000000000000000000000000000000000000008152600401611c1b90613092565b60405180910390fd5b805181602001fd5b63150b7a0260e01b7bffffffffffffffffffffffffffffffffffffffffffffffffffffffff1916817bffffffffffffffffffffffffffffffffffffffffffffffffffffffff191614915050611c81565b600190505b949350505050565b600073ffffffffffffffffffffffffffffffffffffffff168273ffffffffffffffffffffffffffffffffffffffff1603611cf8576040517f08c379a0000000000000000000000000000000000000000000000000000000008152600401611cef906131e1565b60405180910390fd5b611d0181611a31565b15611d41576040517f08c379a0000000000000000000000000000000000000000000000000000000008152600401611d389061324d565b60405180910390fd5b611d4d60008383611a9d565b6001600360008473ffffffffffffffffffffffffffffffffffffffff1673ffffffffffffffffffffffffffffffffffffffff1681526020019081526020016000206000828254611d9d9190612eef565b92505081905550816002600083815260200190815260200160002060006101000a81548173ffffffffffffffffffffffffffffffffffffffff021916908373ffffffffffffffffffffffffffffffffffffffff160217905550808273ffffffffffffffffffffffffffffffffffffffff16600073ffffffffffffffffffffffffffffffffffffffff167fddf252ad1be2c89b69c2b068fc378daa952ba7f163c4a11628f55a4df523b3ef60405160405180910390a4611e5e60008383611aa2565b5050565b6000808273ffffffffffffffffffffffffffffffffffffffff163b119050919050565b6000604051905090565b600080fd5b600080fd5b60007fffffffff0000000000000000000000000000000000000000000000000000000082169050919050565b611ece81611e99565b8114611ed957600080fd5b50565b600081359050611eeb81611ec5565b92915050565b600060208284031215611f0757611f06611e8f565b5b6000611f1584828501611edc565b91505092915050565b60008115159050919050565b611f3381611f1e565b82525050565b6000602082019050611f4e6000830184611f2a565b92915050565b600081519050919050565b600082825260208201905092915050565b60005b83811015611f8e578082015181840152602081019050611f73565b60008484015250505050565b6000601f19601f8301169050919050565b6000611fb682611f54565b611fc08185611f5f565b9350611fd0818560208601611f70565b611fd981611f9a565b840191505092915050565b60006020820190508181036000830152611ffe8184611fab565b905092915050565b6000819050919050565b61201981612006565b811461202457600080fd5b50565b60008135905061203681612010565b92915050565b60006020828403121561205257612051611e8f565b5b600061206084828501612027565b91505092915050565b600073ffffffffffffffffffffffffffffffffffffffff82169050919050565b600061209482612069565b9050919050565b6120a481612089565b82525050565b60006020820190506120bf600083018461209b565b92915050565b6120ce81612089565b81146120d957600080fd5b50565b6000813590506120eb816120c5565b92915050565b6000806040838503121561210857612107611e8f565b5b6000612116858286016120dc565b925050602061212785828601612027565b9150509250929050565b60008060006060848603121561214a57612149611e8f565b5b6000612158868287016120dc565b9350506020612169868287016120dc565b925050604061217a86828701612027565b9150509250925092565b60006020828403121561219a57612199611e8f565b5b60006121a8848285016120dc565b91505092915050565b6121ba81612006565b82525050565b60006020820190506121d560008301846121b1565b92915050565b6121e481611f1e565b81146121ef57600080fd5b50565b600081359050612201816121db565b92915050565b6000806040838503121561221e5761221d611e8f565b5b600061222c858286016120dc565b925050602061223d858286016121f2565b9150509250929050565b600081519050919050565b600082825260208201905092915050565b6000819050602082019050919050565b600082825260208201905092915050565b600061228f82611f54565b6122998185612273565b93506122a9818560208601611f70565b6122b281611f9a565b840191505092915050565b60006122c98383612284565b905092915050565b6000602082019050919050565b60006122e982612247565b6122f38185612252565b93508360208202850161230585612263565b8060005b85811015612341578484038952815161232285826122bd565b945061232d836122d1565b925060208a01995050600181019050612309565b50829750879550505050505092915050565b6000602082019050818103600083015261236d81846122de565b905092915050565b600080fd5b600080fd5b7f4e487b7100000000000000000000000000000000000000000000000000000000600052604160045260246000fd5b6123b782611f9a565b810181811067ffffffffffffffff821117156123d6576123d561237f565b5b80604052505050565b60006123e9611e85565b90506123f582826123ae565b919050565b600067ffffffffffffffff8211156124155761241461237f565b5b61241e82611f9a565b9050602081019050919050565b82818337600083830152505050565b600061244d612448846123fa565b6123df565b9050828152602081018484840111156124695761246861237a565b5b61247484828561242b565b509392505050565b600082601f83011261249157612490612375565b5b81356124a184826020860161243a565b91505092915050565b600080600080608085870312156124c4576124c3611e8f565b5b60006124d2878288016120dc565b94505060206124e3878288016120dc565b93505060406124f487828801612027565b925050606085013567ffffffffffffffff81111561251557612514611e94565b5b6125218782880161247c565b91505092959194509250565b6000806040838503121561254457612543611e8f565b5b6000612552858286016120dc565b9250506020612563858286016120dc565b9150509250929050565b7f4e487b7100000000000000000000000000000000000000000000000000000000600052602260045260246000fd5b600060028204905060018216806125b457607f821691505b6020821081036125c7576125c661256d565b5b50919050565b7f4552433732313a20617070726f76616c20746f2063757272656e74206f776e6560008201527f7200000000000000000000000000000000000000000000000000000000000000602082015250565b6000612629602183611f5f565b9150612634826125cd565b604082019050919050565b600060208201905081810360008301526126588161261c565b9050919050565b7f4552433732313a20617070726f76652063616c6c6572206973206e6f7420746f60008201527f6b656e206f776e6572206e6f7220617070726f76656420666f7220616c6c0000602082015250565b60006126bb603e83611f5f565b91506126c68261265f565b604082019050919050565b600060208201905081810360008301526126ea816126ae565b9050919050565b7f4f6e6c7920746865206c6f74746572792063616e20617761726420746f6b656e60008201527f732e000000000000000000000000000000000000000000000000000000000000602082015250565b600061274d602283611f5f565b9150612758826126f1565b604082019050919050565b6000602082019050818103600083015261277c81612740565b9050919050565b7f4e487b7100000000000000000000000000000000000000000000000000000000600052601160045260246000fd5b60006127bd82612006565b91507fffffffffffffffffffffffffffffffffffffffffffffffffffffffffffffffff82036127ef576127ee612783565b5b600182019050919050565b7f4552433732313a2063616c6c6572206973206e6f7420746f6b656e206f776e6560008201527f72206e6f7220617070726f766564000000000000000000000000000000000000602082015250565b6000612856602e83611f5f565b9150612861826127fa565b604082019050919050565b6000602082019050818103600083015261288581612849565b9050919050565b7f4f6e6c792074686520666163746f72792063616e206d6f64696679207468652060008201527f6173736f63696174696f6e000000000000000000000000000000000000000000602082015250565b60006128e8602b83611f5f565b91506128f38261288c565b604082019050919050565b60006020820190508181036000830152612917816128db565b9050919050565b7f4552433732313a20696e76616c696420746f6b656e2049440000000000000000600082015250565b6000612954601883611f5f565b915061295f8261291e565b602082019050919050565b6000602082019050818103600083015261298381612947565b9050919050565b7f4552433732313a2061646472657373207a65726f206973206e6f74206120766160008201527f6c6964206f776e65720000000000000000000000000000000000000000000000602082015250565b60006129e6602983611f5f565b91506129f18261298a565b604082019050919050565b60006020820190508181036000830152612a15816129d9565b9050919050565b600081905092915050565b7f4e465420636c6173733a20000000000000000000000000000000000000000000600082015250565b6000612a5d600b83612a1c565b9150612a6882612a27565b600b82019050919050565b6000612a7e82611f54565b612a888185612a1c565b9350612a98818560208601611f70565b80840191505092915050565b6000612aaf82612a50565b9150612abb8284612a73565b915081905092915050565b60008190508160005260206000209050919050565b60006020601f8301049050919050565b600082821b905092915050565b600060088302612b287fffffffffffffffffffffffffffffffffffffffffffffffffffffffffffffffff82612aeb565b612b328683612aeb565b95508019841693508086168417925050509392505050565b6000819050919050565b6000612b6f612b6a612b6584612006565b612b4a565b612006565b9050919050565b6000819050919050565b612b8983612b54565b612b9d612b9582612b76565b848454612af8565b825550505050565b600090565b612bb2612ba5565b612bbd818484612b80565b505050565b5b81811015612be157612bd6600082612baa565b600181019050612bc3565b5050565b601f821115612c2657612bf781612ac6565b612c0084612adb565b81016020851015612c0f578190505b612c23612c1b85612adb565b830182612bc2565b50505b505050565b600082821c905092915050565b6000612c4960001984600802612c2b565b1980831691505092915050565b6000612c628383612c38565b9150826002028217905092915050565b612c7b82611f54565b67ffffffffffffffff811115612c9457612c9361237f565b5b612c9e825461259c565b612ca9828285612be5565b600060209050601f831160018114612cdc5760008415612cca578287015190505b612cd48582612c56565b865550612d3c565b601f198416612cea86612ac6565b60005b82811015612d1257848901518255600182019150602085019450602081019050612ced565b86831015612d2f5784890151612d2b601f891682612c38565b8355505b6001600288020188555050505b505050505050565b7f4e487b7100000000000000000000000000000000000000000000000000000000600052603260045260246000fd5b6000612d7f8285612a73565b9150612d8b8284612a73565b91508190509392505050565b7f4552433732313a207472616e736665722066726f6d20696e636f72726563742060008201527f6f776e6572000000000000000000000000000000000000000000000000000000602082015250565b6000612df3602583611f5f565b9150612dfe82612d97565b604082019050919050565b60006020820190508181036000830152612e2281612de6565b9050919050565b7f4552433732313a207472616e7366657220746f20746865207a65726f2061646460008201527f7265737300000000000000000000000000000000000000000000000000000000602082015250565b6000612e85602483611f5f565b9150612e9082612e29565b604082019050919050565b60006020820190508181036000830152612eb481612e78565b9050919050565b6000612ec682612006565b9150612ed183612006565b9250828203905081811115612ee957612ee8612783565b5b92915050565b6000612efa82612006565b9150612f0583612006565b9250828201905080821115612f1d57612f1c612783565b5b92915050565b7f4552433732313a20617070726f766520746f2063616c6c657200000000000000600082015250565b6000612f59601983611f5f565b9150612f6482612f23565b602082019050919050565b60006020820190508181036000830152612f8881612f4c565b9050919050565b7f4e487b7100000000000000000000000000000000000000000000000000000000600052601260045260246000fd5b6000612fc982612006565b9150612fd483612006565b925082612fe457612fe3612f8f565b5b828204905092915050565b6000612ffa82612006565b915061300583612006565b92508261301557613014612f8f565b5b828206905092915050565b7f4552433732313a207472616e7366657220746f206e6f6e20455243373231526560008201527f63656976657220696d706c656d656e7465720000000000000000000000000000602082015250565b600061307c603283611f5f565b915061308782613020565b604082019050919050565b600060208201905081810360008301526130ab8161306f565b9050919050565b600081519050919050565b600082825260208201905092915050565b60006130d9826130b2565b6130e381856130bd565b93506130f3818560208601611f70565b6130fc81611f9a565b840191505092915050565b600060808201905061311c600083018761209b565b613129602083018661209b565b61313660408301856121b1565b818103606083015261314881846130ce565b905095945050505050565b60008151905061316281611ec5565b92915050565b60006020828403121561317e5761317d611e8f565b5b600061318c84828501613153565b91505092915050565b7f4552433732313a206d696e7420746f20746865207a65726f2061646472657373600082015250565b60006131cb602083611f5f565b91506131d682613195565b602082019050919050565b600060208201905081810360008301526131fa816131be565b9050919050565b7f4552433732313a20746f6b656e20616c7265616479206d696e74656400000000600082015250565b6000613237601c83611f5f565b915061324282613201565b602082019050919050565b600060208201905081810360008301526132668161322a565b905091905056fea26469706673582212200b6b91c9bc36d6c008d4062ed9011b591f55cadeeb2e30fd816479baa149581864736f6c63430008100033",
  "immutableReferences": {},
  "source": "// contracts/GameItem.sol\n// SPDX-License-Identifier: MIT\npragma solidity ^0.8.11;\n\nimport \"@openzeppelin/contracts/token/ERC721/extensions/ERC721URIStorage.sol\";\nimport \"@openzeppelin/contracts/utils/Counters.sol\";\nimport \"@openzeppelin/contracts/token/ERC721/ERC721.sol\";\n\ncontract kittyNft is ERC721 {\n\n    using Counters for Counters.Counter;\n    Counters.Counter private _tokenIds;\n\n    // Owner of NFT\n    address public owner;\n    // Lottery address\n    address public lottery;\n    // Factory address\n    address public factory;\n    //nft's rank\n    mapping (uint => uint) public rank;\n    // Mapping from tokeId to descriptions\n    mapping (uint => string) public description;\n    // Mapping from address to tokedIds\n    mapping(address => uint[]) public awardedNFTs;\n\n    constructor(address _factory) ERC721(\"kittyNft\", \"kitty\") {\n        //ganache account used by truffle\n        owner = msg.sender;\n        //factory address\n        factory = _factory; \n    }\n\n    function setLotteryAddress(address _lottery) public {\n        // Only the facotry is allowed to relate NFT with Try\n        require(msg.sender == factory, \"Only the factory can modify the association\");\n        lottery = _lottery; // this will be the new contract address\n        //used to assign or revoke the full approval rights to the given operator\n        // in this way the new lottery can manage NFTs\n        _setApprovalForAll(owner, lottery, true); \n    }\n\n    //function to mint a new nft of class X\n    function mint(uint class) public\n    {\n        uint256 newItemId = _tokenIds.current();\n        _tokenIds.increment();\n\n        _safeMint(owner, newItemId); \n\n        rank[class] = newItemId;\n        description[class] = string(abi.encodePacked(\"NFT class: \", Strings.toString(class)));\n       \n\n    }\n\n    //Return the first token id available given a class\n    function getTokenOfClass(uint class) public view returns (uint){\n        return rank[class];\n    }\n\n    //associate nft to the winner\n    function awardItem(address player, uint256 tokenId) public {\n        require(msg.sender == lottery, \"Only the lottery can award tokens.\");\n        safeTransferFrom(owner, player, tokenId);\n        for(uint i = 1; i <= 8; i++){\n            if(rank[i] == tokenId){\n                awardedNFTs[player].push(i);\n                break;\n            }\n\n        }\n        \n    }\n\n    //Return the NFTs associated to a certain player\n    function getNFTsFromAddress(address addr) public view returns(string[] memory){\n        uint[] memory nftWon = awardedNFTs[addr];\n        string[] memory nftDescriptions;\n        if (nftWon.length > 0){\n            //nft descr. is just the class of the nft\n            nftDescriptions = new string[](nftWon.length);\n            for(uint i=0; i< nftWon.length; i++){\n                nftDescriptions[i] = description[nftWon[i]];\n            }\n        }\n        return nftDescriptions;\n        //return awardedNFTs[addr];\n    }\n}\n",
  "sourcePath": "/home/davi/Desktop/p2p_blockchain/dapp-morucci/contracts/nftKitty.sol",
  "compiler": {
    "name": "solc",
    "version": "0.8.16+commit.07a7930e.Emscripten.clang"
  },
  "schemaVersion": "3.4.11",
  "updatedAt": "2023-01-25T09:30:11.087Z",
  "networkType": "ethereum",
  "devdoc": {
    "kind": "dev",
    "methods": {
      "approve(address,uint256)": {
        "details": "See {IERC721-approve}."
      },
      "balanceOf(address)": {
        "details": "See {IERC721-balanceOf}."
      },
      "getApproved(uint256)": {
        "details": "See {IERC721-getApproved}."
      },
      "isApprovedForAll(address,address)": {
        "details": "See {IERC721-isApprovedForAll}."
      },
      "name()": {
        "details": "See {IERC721Metadata-name}."
      },
      "ownerOf(uint256)": {
        "details": "See {IERC721-ownerOf}."
      },
      "safeTransferFrom(address,address,uint256)": {
        "details": "See {IERC721-safeTransferFrom}."
      },
      "safeTransferFrom(address,address,uint256,bytes)": {
        "details": "See {IERC721-safeTransferFrom}."
      },
      "setApprovalForAll(address,bool)": {
        "details": "See {IERC721-setApprovalForAll}."
      },
      "supportsInterface(bytes4)": {
        "details": "See {IERC165-supportsInterface}."
      },
      "symbol()": {
        "details": "See {IERC721Metadata-symbol}."
      },
      "tokenURI(uint256)": {
        "details": "See {IERC721Metadata-tokenURI}."
      },
      "transferFrom(address,address,uint256)": {
        "details": "See {IERC721-transferFrom}."
      }
    },
    "version": 1
  },
  "userdoc": {
    "kind": "user",
    "methods": {},
    "version": 1
  }
}