{
  "contractName": "Lottery",
  "abi": [
    {
      "inputs": [
        {
          "internalType": "uint256",
          "name": "_K",
          "type": "uint256"
        },
        {
          "internalType": "uint256",
          "name": "_duration",
          "type": "uint256"
        },
        {
          "internalType": "uint256",
          "name": "price",
          "type": "uint256"
        },
        {
          "internalType": "address",
          "name": "kittyAddr",
          "type": "address"
        },
        {
          "internalType": "address",
          "name": "_lotteryOperator",
          "type": "address"
        }
      ],
      "stateMutability": "nonpayable",
      "type": "constructor"
    },
    {
      "anonymous": false,
      "inputs": [
        {
          "indexed": false,
          "internalType": "string",
          "name": "result",
          "type": "string"
        },
        {
          "indexed": false,
          "internalType": "address",
          "name": "buyer",
          "type": "address"
        },
        {
          "indexed": false,
          "internalType": "uint256",
          "name": "_refund",
          "type": "uint256"
        }
      ],
      "name": "closeLotteryAndRefund",
      "type": "event"
    },
    {
      "anonymous": false,
      "inputs": [
        {
          "indexed": false,
          "internalType": "string",
          "name": "result",
          "type": "string"
        }
      ],
      "name": "closeLotteryEvent",
      "type": "event"
    },
    {
      "anonymous": false,
      "inputs": [
        {
          "indexed": false,
          "internalType": "address",
          "name": "winningPlayer",
          "type": "address"
        },
        {
          "indexed": false,
          "internalType": "string",
          "name": "result",
          "type": "string"
        },
        {
          "indexed": false,
          "internalType": "uint256",
          "name": "_prizeToGive",
          "type": "uint256"
        }
      ],
      "name": "givePrizeToPlayers",
      "type": "event"
    },
    {
      "anonymous": false,
      "inputs": [
        {
          "indexed": false,
          "internalType": "string",
          "name": "result",
          "type": "string"
        },
        {
          "indexed": false,
          "internalType": "uint256",
          "name": "nftClass",
          "type": "uint256"
        }
      ],
      "name": "mintNewNft",
      "type": "event"
    },
    {
      "anonymous": false,
      "inputs": [
        {
          "indexed": false,
          "internalType": "string",
          "name": "result",
          "type": "string"
        }
      ],
      "name": "newDrawn",
      "type": "event"
    },
    {
      "anonymous": false,
      "inputs": [
        {
          "indexed": false,
          "internalType": "string",
          "name": "result",
          "type": "string"
        },
        {
          "indexed": false,
          "internalType": "uint256",
          "name": "start",
          "type": "uint256"
        },
        {
          "indexed": false,
          "internalType": "uint256",
          "name": "end",
          "type": "uint256"
        }
      ],
      "name": "newRound",
      "type": "event"
    },
    {
      "anonymous": false,
      "inputs": [
        {
          "indexed": false,
          "internalType": "address",
          "name": "buyer",
          "type": "address"
        },
        {
          "indexed": false,
          "internalType": "string",
          "name": "result",
          "type": "string"
        },
        {
          "indexed": false,
          "internalType": "uint256[6]",
          "name": "_numbers",
          "type": "uint256[6]"
        }
      ],
      "name": "newTicketBought",
      "type": "event"
    },
    {
      "anonymous": false,
      "inputs": [
        {
          "indexed": false,
          "internalType": "string",
          "name": "result",
          "type": "string"
        },
        {
          "indexed": false,
          "internalType": "uint256",
          "name": "value",
          "type": "uint256"
        }
      ],
      "name": "refundLotteryOperator",
      "type": "event"
    },
    {
      "anonymous": false,
      "inputs": [
        {
          "indexed": false,
          "internalType": "uint256[6]",
          "name": "_numbers",
          "type": "uint256[6]"
        }
      ],
      "name": "winningNumbers",
      "type": "event"
    },
    {
      "inputs": [],
      "name": "blockNumber",
      "outputs": [
        {
          "internalType": "uint256",
          "name": "",
          "type": "uint256"
        }
      ],
      "stateMutability": "view",
      "type": "function"
    },
    {
      "inputs": [],
      "name": "duration",
      "outputs": [
        {
          "internalType": "uint256",
          "name": "",
          "type": "uint256"
        }
      ],
      "stateMutability": "view",
      "type": "function"
    },
    {
      "inputs": [],
      "name": "isActive",
      "outputs": [
        {
          "internalType": "bool",
          "name": "",
          "type": "bool"
        }
      ],
      "stateMutability": "view",
      "type": "function"
    },
    {
      "inputs": [],
      "name": "isLotteryActive",
      "outputs": [
        {
          "internalType": "bool",
          "name": "",
          "type": "bool"
        }
      ],
      "stateMutability": "view",
      "type": "function"
    },
    {
      "inputs": [],
      "name": "kittyAddress",
      "outputs": [
        {
          "internalType": "address",
          "name": "",
          "type": "address"
        }
      ],
      "stateMutability": "view",
      "type": "function"
    },
    {
      "inputs": [],
      "name": "lotteryOperator",
      "outputs": [
        {
          "internalType": "address",
          "name": "",
          "type": "address"
        }
      ],
      "stateMutability": "view",
      "type": "function"
    },
    {
      "inputs": [
        {
          "internalType": "uint256",
          "name": "",
          "type": "uint256"
        }
      ],
      "name": "numbersDrawn",
      "outputs": [
        {
          "internalType": "uint256",
          "name": "",
          "type": "uint256"
        }
      ],
      "stateMutability": "view",
      "type": "function"
    },
    {
      "inputs": [
        {
          "internalType": "uint256",
          "name": "",
          "type": "uint256"
        }
      ],
      "name": "players",
      "outputs": [
        {
          "internalType": "address payable",
          "name": "",
          "type": "address"
        }
      ],
      "stateMutability": "view",
      "type": "function"
    },
    {
      "inputs": [
        {
          "internalType": "address",
          "name": "",
          "type": "address"
        }
      ],
      "name": "playersTickets",
      "outputs": [
        {
          "internalType": "uint256",
          "name": "nTicket",
          "type": "uint256"
        }
      ],
      "stateMutability": "view",
      "type": "function"
    },
    {
      "inputs": [],
      "name": "prizeGiven",
      "outputs": [
        {
          "internalType": "bool",
          "name": "",
          "type": "bool"
        }
      ],
      "stateMutability": "view",
      "type": "function"
    },
    {
      "inputs": [],
      "name": "roundClosing",
      "outputs": [
        {
          "internalType": "uint256",
          "name": "",
          "type": "uint256"
        }
      ],
      "stateMutability": "view",
      "type": "function"
    },
    {
      "inputs": [],
      "name": "ticketPrice",
      "outputs": [
        {
          "internalType": "uint256",
          "name": "",
          "type": "uint256"
        }
      ],
      "stateMutability": "view",
      "type": "function"
    },
    {
      "inputs": [],
      "name": "valueK",
      "outputs": [
        {
          "internalType": "uint256",
          "name": "",
          "type": "uint256"
        }
      ],
      "stateMutability": "view",
      "type": "function"
    },
    {
      "inputs": [
        {
          "internalType": "uint256",
          "name": "_classNFT",
          "type": "uint256"
        }
      ],
      "name": "mint",
      "outputs": [],
      "stateMutability": "nonpayable",
      "type": "function"
    },
    {
      "inputs": [],
      "name": "startNewRound",
      "outputs": [],
      "stateMutability": "nonpayable",
      "type": "function"
    },
    {
      "inputs": [
        {
          "internalType": "uint256[6]",
          "name": "_numbers",
          "type": "uint256[6]"
        }
      ],
      "name": "buy",
      "outputs": [
        {
          "internalType": "bool",
          "name": "",
          "type": "bool"
        }
      ],
      "stateMutability": "payable",
      "type": "function"
    },
    {
      "inputs": [],
      "name": "drawNumbers",
      "outputs": [],
      "stateMutability": "nonpayable",
      "type": "function"
    },
    {
      "inputs": [],
      "name": "givePrizes",
      "outputs": [],
      "stateMutability": "nonpayable",
      "type": "function"
    },
    {
      "inputs": [],
      "name": "closeLottery",
      "outputs": [],
      "stateMutability": "nonpayable",
      "type": "function"
    },
    {
      "inputs": [],
      "name": "getWinningNumbers",
      "outputs": [
        {
          "internalType": "uint256[6]",
          "name": "",
          "type": "uint256[6]"
        }
      ],
      "stateMutability": "view",
      "type": "function"
    },
    {
      "inputs": [],
      "name": "getPlayers",
      "outputs": [
        {
          "internalType": "uint256",
          "name": "",
          "type": "uint256"
        }
      ],
      "stateMutability": "view",
      "type": "function"
    },
    {
      "inputs": [
        {
          "internalType": "address",
          "name": "addr",
          "type": "address"
        },
        {
          "internalType": "uint256",
          "name": "index",
          "type": "uint256"
        }
      ],
      "name": "getTicketList",
      "outputs": [
        {
          "internalType": "uint256[]",
          "name": "",
          "type": "uint256[]"
        }
      ],
      "stateMutability": "view",
      "type": "function"
    },
    {
      "inputs": [
        {
          "internalType": "address",
          "name": "addr",
          "type": "address"
        }
      ],
      "name": "getTotTickets",
      "outputs": [
        {
          "internalType": "uint256",
          "name": "",
          "type": "uint256"
        }
      ],
      "stateMutability": "view",
      "type": "function"
    },
    {
      "inputs": [
        {
          "internalType": "address",
          "name": "addr",
          "type": "address"
        }
      ],
      "name": "getWonNFTsFromAddress",
      "outputs": [
        {
          "internalType": "string[]",
          "name": "",
          "type": "string[]"
        }
      ],
      "stateMutability": "view",
      "type": "function"
    },
    {
      "inputs": [
        {
          "internalType": "address",
          "name": "addr",
          "type": "address"
        }
      ],
      "name": "getMatch",
      "outputs": [
        {
          "internalType": "uint256[]",
          "name": "",
          "type": "uint256[]"
        }
      ],
      "stateMutability": "view",
      "type": "function"
    },
    {
      "inputs": [
        {
          "internalType": "address",
          "name": "addr",
          "type": "address"
        }
      ],
      "name": "getMatchPB",
      "outputs": [
        {
          "internalType": "uint256[]",
          "name": "",
          "type": "uint256[]"
        }
      ],
      "stateMutability": "view",
      "type": "function"
    },
    {
      "inputs": [
        {
          "internalType": "uint256",
          "name": "_class",
          "type": "uint256"
        }
      ],
      "name": "getRank",
      "outputs": [
        {
          "internalType": "uint256",
          "name": "",
          "type": "uint256"
        }
      ],
      "stateMutability": "view",
      "type": "function"
    }
  ],
  "bytecode": "0x60806040523480156200001157600080fd5b50604051620049a8380380620049a88339818101604052810190620000379190620002a2565b806000806101000a81548173ffffffffffffffffffffffffffffffffffffffff021916908373ffffffffffffffffffffffffffffffffffffffff1602179055506000600460006101000a81548160ff0219169083151502179055506001600460016101000a81548160ff02191690831515021790555084600e81905550836005819055506001600f60006101000a81548160ff02191690831515021790555081601160006101000a81548173ffffffffffffffffffffffffffffffffffffffff021916908373ffffffffffffffffffffffffffffffffffffffff160217905550633b9aca008362000129919062000359565b60108190555060005b6008811015620001f157601160009054906101000a900473ffffffffffffffffffffffffffffffffffffffff1673ffffffffffffffffffffffffffffffffffffffff1663a0712d68600183620001899190620003ba565b6040518263ffffffff1660e01b8152600401620001a7919062000406565b600060405180830381600087803b158015620001c257600080fd5b505af1158015620001d7573d6000803e3d6000fd5b505050508080620001e89062000423565b91505062000132565b50505050505062000470565b600080fd5b6000819050919050565b620002178162000202565b81146200022357600080fd5b50565b60008151905062000237816200020c565b92915050565b600073ffffffffffffffffffffffffffffffffffffffff82169050919050565b60006200026a826200023d565b9050919050565b6200027c816200025d565b81146200028857600080fd5b50565b6000815190506200029c8162000271565b92915050565b600080600080600060a08688031215620002c157620002c0620001fd565b5b6000620002d18882890162000226565b9550506020620002e48882890162000226565b9450506040620002f78882890162000226565b93505060606200030a888289016200028b565b92505060806200031d888289016200028b565b9150509295509295909350565b7f4e487b7100000000000000000000000000000000000000000000000000000000600052601160045260246000fd5b6000620003668262000202565b9150620003738362000202565b9250817fffffffffffffffffffffffffffffffffffffffffffffffffffffffffffffffff0483118215151615620003af57620003ae6200032a565b5b828202905092915050565b6000620003c78262000202565b9150620003d48362000202565b9250828201905080821115620003ef57620003ee6200032a565b5b92915050565b620004008162000202565b82525050565b60006020820190506200041d6000830184620003f5565b92915050565b6000620004308262000202565b91507fffffffffffffffffffffffffffffffffffffffffffffffffffffffffffffffff82036200046557620004646200032a565b5b600182019050919050565b61452880620004806000396000f3fe60806040526004361061019c5760003560e01c8063953cf2c8116100ec578063c7c213dd1161008a578063ea688ed711610064578063ea688ed71461059d578063eaba3fc4146105da578063f25133d714610605578063f71d96cb146106425761019c565b8063c7c213dd1461050a578063cc12bb4b14610547578063e75276e6146105725761019c565b8063a8bd5634116100c6578063a8bd56341461045b578063afd69e171461048b578063bd85948c146104c8578063c3b69ebb146104df5761019c565b8063953cf2c8146103b8578063a0712d68146103f5578063a5099bae1461041e5761019c565b80635a58acdd116101595780636fd09816116101335780636fd098161461032057806384350e1d146103375780638b5b9ccc14610362578063950805391461038d5761019c565b80635a58acdd146102a1578063676c902f146102cc5780636903dd4a146102e35761019c565b806306d5ee54146101a15780630fb5a6b4146101b85780631209b1f6146101e357806322f3e2d41461020e57806353d0bcce1461023957806357e871e714610276575b600080fd5b3480156101ad57600080fd5b506101b661067f565b005b3480156101c457600080fd5b506101cd611241565b6040516101da9190612dcc565b60405180910390f35b3480156101ef57600080fd5b506101f8611247565b6040516102059190612dcc565b60405180910390f35b34801561021a57600080fd5b5061022361124d565b6040516102309190612e02565b60405180910390f35b34801561024557600080fd5b50610260600480360381019061025b9190612e8f565b611260565b60405161026d9190612dcc565b60405180910390f35b34801561028257600080fd5b5061028b61127e565b6040516102989190612dcc565b60405180910390f35b3480156102ad57600080fd5b506102b6611284565b6040516102c39190612ecb565b60405180910390f35b3480156102d857600080fd5b506102e16112a8565b005b3480156102ef57600080fd5b5061030a60048036038101906103059190612e8f565b611732565b6040516103179190613038565b60405180910390f35b34801561032c57600080fd5b506103356117dc565b005b34801561034357600080fd5b5061034c611b96565b6040516103599190613105565b60405180910390f35b34801561036e57600080fd5b50610377611be1565b6040516103849190612dcc565b60405180910390f35b34801561039957600080fd5b506103a2611bee565b6040516103af9190612e02565b60405180910390f35b3480156103c457600080fd5b506103df60048036038101906103da919061314c565b611c01565b6040516103ec9190613223565b60405180910390f35b34801561040157600080fd5b5061041c60048036038101906104179190613245565b611cad565b005b34801561042a57600080fd5b5061044560048036038101906104409190613245565b611e58565b6040516104529190612dcc565b60405180910390f35b610475600480360381019061047091906133a8565b611efd565b6040516104829190612e02565b60405180910390f35b34801561049757600080fd5b506104b260048036038101906104ad9190612e8f565b612500565b6040516104bf9190613223565b60405180910390f35b3480156104d457600080fd5b506104dd61259a565b005b3480156104eb57600080fd5b506104f4612b21565b6040516105019190612e02565b60405180910390f35b34801561051657600080fd5b50610531600480360381019061052c9190613245565b612b34565b60405161053e9190612dcc565b60405180910390f35b34801561055357600080fd5b5061055c612b4f565b6040516105699190612ecb565b60405180910390f35b34801561057e57600080fd5b50610587612b75565b6040516105949190612dcc565b60405180910390f35b3480156105a957600080fd5b506105c460048036038101906105bf9190612e8f565b612b7b565b6040516105d19190612dcc565b60405180910390f35b3480156105e657600080fd5b506105ef612bc7565b6040516105fc9190612dcc565b60405180910390f35b34801561061157600080fd5b5061062c60048036038101906106279190612e8f565b612bcd565b6040516106399190613223565b60405180910390f35b34801561064e57600080fd5b5061066960048036038101906106649190613245565b612c67565b60405161067691906133f6565b60405180910390f35b60008054906101000a900473ffffffffffffffffffffffffffffffffffffffff1673ffffffffffffffffffffffffffffffffffffffff163373ffffffffffffffffffffffffffffffffffffffff161461070d576040517f08c379a000000000000000000000000000000000000000000000000000000000815260040161070490613494565b60405180910390fd5b60011515600460019054906101000a900460ff16151514610763576040517f08c379a000000000000000000000000000000000000000000000000000000000815260040161075a90613526565b60405180910390fd5b60005b600180549050811015610c1a576000600190505b600360006001848154811061079257610791613546565b5b9060005260206000200160009054906101000a900473ffffffffffffffffffffffffffffffffffffffff1673ffffffffffffffffffffffffffffffffffffffff1673ffffffffffffffffffffffffffffffffffffffff168152602001908152602001600020600101548111610c06576000805b6006811015610bf15760058103610ae157600360006001868154811061082e5761082d613546565b5b9060005260206000200160009054906101000a900473ffffffffffffffffffffffffffffffffffffffff1673ffffffffffffffffffffffffffffffffffffffff1673ffffffffffffffffffffffffffffffffffffffff168152602001908152602001600020600001600084815260200190815260200160002081815481106108b9576108b8613546565b5b9060005260206000200154600882600681106108d8576108d7613546565b5b01540361098c5760036000600186815481106108f7576108f6613546565b5b9060005260206000200160009054906101000a900473ffffffffffffffffffffffffffffffffffffffff1673ffffffffffffffffffffffffffffffffffffffff1673ffffffffffffffffffffffffffffffffffffffff16815260200190815260200160002060030160019080600181540180825580915050600190039060005260206000200160009091909190915055610a35565b60036000600186815481106109a4576109a3613546565b5b9060005260206000200160009054906101000a900473ffffffffffffffffffffffffffffffffffffffff1673ffffffffffffffffffffffffffffffffffffffff1673ffffffffffffffffffffffffffffffffffffffff168152602001908152602001600020600301600090806001815401808255809150506001900390600052602060002001600090919091909150555b6003600060018681548110610a4d57610a4c613546565b5b9060005260206000200160009054906101000a900473ffffffffffffffffffffffffffffffffffffffff1673ffffffffffffffffffffffffffffffffffffffff1673ffffffffffffffffffffffffffffffffffffffff168152602001908152602001600020600201829080600181540180825580915050600190039060005260206000200160009091909190915055610bf1565b60005b6005811015610bdd576003600060018781548110610b0557610b04613546565b5b9060005260206000200160009054906101000a900473ffffffffffffffffffffffffffffffffffffffff1673ffffffffffffffffffffffffffffffffffffffff1673ffffffffffffffffffffffffffffffffffffffff16815260200190815260200160002060000160008581526020019081526020016000208181548110610b9057610b8f613546565b5b906000526020600020015460088360068110610baf57610bae613546565b5b015403610bca57600183610bc391906135a4565b9250610bdd565b8080610bd5906135d8565b915050610ae4565b508080610be9906135d8565b915050610805565b50508080610bfe906135d8565b91505061077a565b508080610c12906135d8565b915050610766565b5060005b60018054905081101561117f5760005b6003600060018481548110610c4657610c45613546565b5b9060005260206000200160009054906101000a900473ffffffffffffffffffffffffffffffffffffffff1673ffffffffffffffffffffffffffffffffffffffff1673ffffffffffffffffffffffffffffffffffffffff1681526020019081526020016000206001015481101561116b5760006003600060018581548110610cd057610ccf613546565b5b9060005260206000200160009054906101000a900473ffffffffffffffffffffffffffffffffffffffff1673ffffffffffffffffffffffffffffffffffffffff1673ffffffffffffffffffffffffffffffffffffffff1681526020019081526020016000206002018281548110610d4a57610d49613546565b5b9060005260206000200154905060006003600060018681548110610d7157610d70613546565b5b9060005260206000200160009054906101000a900473ffffffffffffffffffffffffffffffffffffffff1673ffffffffffffffffffffffffffffffffffffffff1673ffffffffffffffffffffffffffffffffffffffff1681526020019081526020016000206003018381548110610deb57610dea613546565b5b9060005260206000200154905060008083148015610e095750600082145b15610e1657505050611158565b600583148015610e265750600182145b15610e345760019050610f66565b600583148015610e445750600082145b15610e525760029050610f65565b600483148015610e625750600182145b15610e705760039050610f64565b600483148015610e805750600082145b15610e8e5760049050610f63565b600383148015610e9e5750600182145b15610eac5760049050610f62565b600383148015610ebc5750600082145b15610eca5760059050610f61565b600283148015610eda5750600182145b15610ee85760059050610f60565b600283148015610ef85750600082145b15610f065760069050610f5f565b600183148015610f165750600182145b15610f245760069050610f5e565b600183148015610f345750600082145b15610f425760079050610f5d565b600083148015610f525750600182145b15610f5c57600890505b5b5b5b5b5b5b5b5b5b5b7fdab4022f56e1528add3a1fd93222bfe25156641feb9c8807af52a97b9393c62060018681548110610f9b57610f9a613546565b5b9060005260206000200160009054906101000a900473ffffffffffffffffffffffffffffffffffffffff1682604051610fd59291906136cb565b60405180910390a16000601160009054906101000a900473ffffffffffffffffffffffffffffffffffffffff1673ffffffffffffffffffffffffffffffffffffffff1663ad4e59d5836040518263ffffffff1660e01b815260040161103a9190612dcc565b602060405180830381865afa158015611057573d6000803e3d6000fd5b505050506040513d601f19601f8201168201806040525081019061107b919061371c565b9050601160009054906101000a900473ffffffffffffffffffffffffffffffffffffffff1673ffffffffffffffffffffffffffffffffffffffff1663144c9d4c600188815481106110cf576110ce613546565b5b9060005260206000200160009054906101000a900473ffffffffffffffffffffffffffffffffffffffff16836040518363ffffffff1660e01b8152600401611118929190613749565b600060405180830381600087803b15801561113257600080fd5b505af1158015611146573d6000803e3d6000fd5b5050505061115382611cad565b505050505b8080611163906135d8565b915050610c2e565b508080611177906135d8565b915050610c1e565b506001600f60006101000a81548160ff021916908315150217905550600047905060008054906101000a900473ffffffffffffffffffffffffffffffffffffffff1673ffffffffffffffffffffffffffffffffffffffff166108fc479081150290604051600060405180830381858888f19350505050158015611206573d6000803e3d6000fd5b507f468e5ac4ae4ace8fade416923a93279d70ff6752c2f4a6c6fa42085aca597e348160405161123691906137be565b60405180910390a150565b60055481565b60105481565b600460009054906101000a900460ff1681565b60036020528060005260406000206000915090508060010154905081565b60075481565b60008054906101000a900473ffffffffffffffffffffffffffffffffffffffff1681565b60008054906101000a900473ffffffffffffffffffffffffffffffffffffffff1673ffffffffffffffffffffffffffffffffffffffff163373ffffffffffffffffffffffffffffffffffffffff1614611336576040517f08c379a000000000000000000000000000000000000000000000000000000000815260040161132d90613494565b60405180910390fd5b60011515600460019054906101000a900460ff1615151461138c576040517f08c379a000000000000000000000000000000000000000000000000000000000815260040161138390613526565b60405180910390fd5b600e5460065461139c91906135a4565b4310156113de576040517f08c379a00000000000000000000000000000000000000000000000000000000081526004016113d590613838565b60405180910390fd5b600f60009054906101000a900460ff161561142e576040517f08c379a0000000000000000000000000000000000000000000000000000000008152600401611425906138a4565b60405180910390fd5b6000600460006101000a81548160ff021916908315150217905550611451612ca6565b60005b604581101561149457600082826045811061147257611471613546565b5b602002019015159081151581525050808061148c906135d8565b915050611454565b5060004442600e546005546114a991906135a4565b6040516020016114bb939291906138e5565b6040516020818303038152906040528051906020012090506000602067ffffffffffffffff8111156114f0576114ef613277565b5b6040519080825280601f01601f1916602001820160405280156115225781602001600182028036833780820191505090505b50905060005b60068110156116b75760005b60208110156115a9578381602081106115505761154f613546565b5b1a60f81b83828151811061156757611566613546565b5b60200101907effffffffffffffffffffffffffffffffffffffffffffffffffffffffffffff1916908160001a90535080806115a1906135d8565b915050611534565b506000828051906020012090506000600160458360001c6115ca9190613951565b6115d491906135a4565b905080600884600681106115eb576115ea613546565b5b0181905550856001826115fe9190613982565b6045811061160f5761160e613546565b5b60200201511561162d576001836116269190613982565b925061165e565b60018660018361163d9190613982565b6045811061164e5761164d613546565b5b6020020190151590811515815250505b6005830361169d576001601a8360001c6116789190613951565b61168291906135a4565b600860056006811061169757611696613546565b5b01819055505b8185189450505080806116af906135d8565b915050611528565b507fe7d6f840d1beffba424f26e3b7b2d85254b6f6ca1efcec92d0f182e83234830c6040516116e590613a4e565b60405180910390a17f0e9dfab34ed4b8b955955f6f040d724560178cbdaa0b3dc07f086a9af0919b11600860405161171d9190613b32565b60405180910390a161172d61067f565b505050565b6060601160009054906101000a900473ffffffffffffffffffffffffffffffffffffffff1673ffffffffffffffffffffffffffffffffffffffff1663a3f00353836040518263ffffffff1660e01b815260040161178f9190612ecb565b600060405180830381865afa1580156117ac573d6000803e3d6000fd5b505050506040513d6000823e3d601f19601f820116820180604052508101906117d59190613cd4565b9050919050565b60008054906101000a900473ffffffffffffffffffffffffffffffffffffffff1673ffffffffffffffffffffffffffffffffffffffff163373ffffffffffffffffffffffffffffffffffffffff161461186a576040517f08c379a000000000000000000000000000000000000000000000000000000000815260040161186190613494565b60405180910390fd5b60011515600460019054906101000a900460ff161515146118c0576040517f08c379a00000000000000000000000000000000000000000000000000000000081526004016118b790613526565b60405180910390fd5b6000600460016101000a81548160ff021916908315150217905550600460009054906101000a900460ff1680156119045750600f60009054906101000a900460ff16155b15611b5f5760005b600180549050811015611b42576001818154811061192d5761192c613546565b5b9060005260206000200160009054906101000a900473ffffffffffffffffffffffffffffffffffffffff1673ffffffffffffffffffffffffffffffffffffffff166108fc600360006001858154811061198957611988613546565b5b9060005260206000200160009054906101000a900473ffffffffffffffffffffffffffffffffffffffff1673ffffffffffffffffffffffffffffffffffffffff1673ffffffffffffffffffffffffffffffffffffffff168152602001908152602001600020600101546010546119ff9190613d1d565b9081150290604051600060405180830381858888f19350505050158015611a2a573d6000803e3d6000fd5b507f5f6d266326f248543b44137e216222bd5dc9180ee417ec10491bf55f756efd8560018281548110611a6057611a5f613546565b5b9060005260206000200160009054906101000a900473ffffffffffffffffffffffffffffffffffffffff166003600060018581548110611aa357611aa2613546565b5b9060005260206000200160009054906101000a900473ffffffffffffffffffffffffffffffffffffffff1673ffffffffffffffffffffffffffffffffffffffff1673ffffffffffffffffffffffffffffffffffffffff16815260200190815260200160002060010154601054611b199190613d1d565b604051611b27929190613de9565b60405180910390a18080611b3a906135d8565b91505061190c565b506000600460006101000a81548160ff0219169083151502179055505b7fad750999d210b220f98a5cf328934ccc90a28f5541a023dfd9db3963a6b71cea604051611b8c90613e97565b60405180910390a1565b611b9e612cc9565b6008600680602002604051908101604052809291908260068015611bd7576020028201915b815481526020019060010190808311611bc3575b5050505050905090565b6000600180549050905090565b600f60009054906101000a900460ff1681565b6060600360008473ffffffffffffffffffffffffffffffffffffffff1673ffffffffffffffffffffffffffffffffffffffff1681526020019081526020016000206000016000838152602001908152602001600020805480602002602001604051908101604052809291908181526020018280548015611ca057602002820191906000526020600020905b815481526020019060010190808311611c8c575b5050505050905092915050565b60011515600460019054906101000a900460ff16151514611d03576040517f08c379a0000000000000000000000000000000000000000000000000000000008152600401611cfa90613526565b60405180910390fd5b60008054906101000a900473ffffffffffffffffffffffffffffffffffffffff1673ffffffffffffffffffffffffffffffffffffffff163373ffffffffffffffffffffffffffffffffffffffff1614611d91576040517f08c379a0000000000000000000000000000000000000000000000000000000008152600401611d8890613494565b60405180910390fd5b601160009054906101000a900473ffffffffffffffffffffffffffffffffffffffff1673ffffffffffffffffffffffffffffffffffffffff1663a0712d68826040518263ffffffff1660e01b8152600401611dec9190612dcc565b600060405180830381600087803b158015611e0657600080fd5b505af1158015611e1a573d6000803e3d6000fd5b505050507f202c25292dbd0caccb463a9b7cbe82b12aa2892a377969d4bae42d2b807784d381604051611e4d9190613f29565b60405180910390a150565b6000601160009054906101000a900473ffffffffffffffffffffffffffffffffffffffff1673ffffffffffffffffffffffffffffffffffffffff1663ad4e59d5836040518263ffffffff1660e01b8152600401611eb59190612dcc565b602060405180830381865afa158015611ed2573d6000803e3d6000fd5b505050506040513d601f19601f82011682018060405250810190611ef6919061371c565b9050919050565b600060011515600460019054906101000a900460ff16151514611f55576040517f08c379a0000000000000000000000000000000000000000000000000000000008152600401611f4c90613526565b60405180910390fd5b60011515600460009054906101000a900460ff16151514611fab576040517f08c379a0000000000000000000000000000000000000000000000000000000008152600401611fa290613fc9565b60405180910390fd5b6010543414611fef576040517f08c379a0000000000000000000000000000000000000000000000000000000008152600401611fe690614035565b60405180910390fd5b600654431115612034576040517f08c379a000000000000000000000000000000000000000000000000000000000815260040161202b906140a1565b60405180910390fd5b6000600690506006811461207d576040517f08c379a000000000000000000000000000000000000000000000000000000000815260040161207490614133565b60405180910390fd5b612085612ca6565b60005b60458110156120c85760008282604581106120a6576120a5613546565b5b60200201901515908115158152505080806120c0906135d8565b915050612088565b5060005b828110156122fc57600581146122225760018582600681106120f1576120f0613546565b5b60200201511015801561211c5750604585826006811061211457612113613546565b5b602002015111155b61215b576040517f08c379a00000000000000000000000000000000000000000000000000000000081526004016121529061419f565b60405180910390fd5b81600186836006811061217157612170613546565b5b60200201516121809190613982565b6045811061219157612190613546565b5b6020020151156121d6576040517f08c379a00000000000000000000000000000000000000000000000000000000081526004016121cd90614231565b60405180910390fd5b60018260018784600681106121ee576121ed613546565b5b60200201516121fd9190613982565b6045811061220e5761220d613546565b5b6020020190151590811515815250506122e9565b600185826006811061223757612236613546565b5b6020020151101580156122625750601a85826006811061225a57612259613546565b5b602002015111155b6122a1576040517f08c379a00000000000000000000000000000000000000000000000000000000081526004016122989061429d565b60405180910390fd5b60018260018784600681106122b9576122b8613546565b5b60200201516122c89190613982565b604581106122d9576122d8613546565b5b6020020190151590811515815250505b80806122f4906135d8565b9150506120cc565b506001600360003373ffffffffffffffffffffffffffffffffffffffff1673ffffffffffffffffffffffffffffffffffffffff168152602001908152602001600020600101600082825461235091906135a4565b925050819055506000600360003373ffffffffffffffffffffffffffffffffffffffff1673ffffffffffffffffffffffffffffffffffffffff1681526020019081526020016000206001015490506001810361240a576001339080600181540180825580915050600190039060005260206000200160009091909190916101000a81548173ffffffffffffffffffffffffffffffffffffffff021916908373ffffffffffffffffffffffffffffffffffffffff1602179055505b60005b60068110156124ba57600360003373ffffffffffffffffffffffffffffffffffffffff1673ffffffffffffffffffffffffffffffffffffffff168152602001908152602001600020600001600083815260200190815260200160002086826006811061247c5761247b613546565b5b6020020151908060018154018082558091505060019003906000526020600020016000909190919091505580806124b2906135d8565b91505061240d565b507f169d255af39dde0c7a29086ed064966ee266c4b4fae0511e5e8dd5ece327c3ec33866040516124ec929190614309565b60405180910390a160019350505050919050565b6060600360008373ffffffffffffffffffffffffffffffffffffffff1673ffffffffffffffffffffffffffffffffffffffff16815260200190815260200160002060030180548060200260200160405190810160405280929190818152602001828054801561258e57602002820191906000526020600020905b81548152602001906001019080831161257a575b50505050509050919050565b60008054906101000a900473ffffffffffffffffffffffffffffffffffffffff1673ffffffffffffffffffffffffffffffffffffffff163373ffffffffffffffffffffffffffffffffffffffff1614612628576040517f08c379a000000000000000000000000000000000000000000000000000000000815260040161261f90613494565b60405180910390fd5b60011515600460019054906101000a900460ff1615151461267e576040517f08c379a000000000000000000000000000000000000000000000000000000000815260040161267590613526565b60405180910390fd5b60001515600460009054906101000a900460ff161515146126d4576040517f08c379a00000000000000000000000000000000000000000000000000000000081526004016126cb906143b8565b60405180910390fd5b60011515600f60009054906101000a900460ff1615151461272a576040517f08c379a00000000000000000000000000000000000000000000000000000000081526004016127219061444a565b60405180910390fd5b6000600f60006101000a81548160ff0219169083151502179055506001600460006101000a81548160ff0219169083151502179055504360078190555060055460075461277791906135a4565b60068190555060005b600180549050811015612a8357600060036000600184815481106127a7576127a6613546565b5b9060005260206000200160009054906101000a900473ffffffffffffffffffffffffffffffffffffffff1673ffffffffffffffffffffffffffffffffffffffff1673ffffffffffffffffffffffffffffffffffffffff1681526020019081526020016000206001015490506000600190505b8181116128d057600360006001858154811061283857612837613546565b5b9060005260206000200160009054906101000a900473ffffffffffffffffffffffffffffffffffffffff1673ffffffffffffffffffffffffffffffffffffffff1673ffffffffffffffffffffffffffffffffffffffff168152602001908152602001600020600001600082815260200190815260200160002060006128bd9190612ceb565b80806128c8906135d8565b915050612819565b50600060036000600185815481106128eb576128ea613546565b5b9060005260206000200160009054906101000a900473ffffffffffffffffffffffffffffffffffffffff1673ffffffffffffffffffffffffffffffffffffffff1673ffffffffffffffffffffffffffffffffffffffff16815260200190815260200160002060010181905550600360006001848154811061296f5761296e613546565b5b9060005260206000200160009054906101000a900473ffffffffffffffffffffffffffffffffffffffff1673ffffffffffffffffffffffffffffffffffffffff1673ffffffffffffffffffffffffffffffffffffffff16815260200190815260200160002060020160006129e39190612ceb565b60036000600184815481106129fb576129fa613546565b5b9060005260206000200160009054906101000a900473ffffffffffffffffffffffffffffffffffffffff1673ffffffffffffffffffffffffffffffffffffffff1673ffffffffffffffffffffffffffffffffffffffff1681526020019081526020016000206003016000612a6f9190612ceb565b508080612a7b906135d8565b915050612780565b50600067ffffffffffffffff811115612a9f57612a9e613277565b5b604051908082528060200260200182016040528015612acd5781602001602082028036833780820191505090505b5060019080519060200190612ae3929190612d0c565b507f8334f25a3f86c4685cd2581567afe1d7a67e2ff09e81b43ba217c942ef03c97843600654604051612b179291906144b6565b60405180910390a1565b600460019054906101000a900460ff1681565b60088160068110612b4457600080fd5b016000915090505481565b600260009054906101000a900473ffffffffffffffffffffffffffffffffffffffff1681565b60065481565b6000600360008373ffffffffffffffffffffffffffffffffffffffff1673ffffffffffffffffffffffffffffffffffffffff168152602001908152602001600020600101549050919050565b600e5481565b6060600360008373ffffffffffffffffffffffffffffffffffffffff1673ffffffffffffffffffffffffffffffffffffffff168152602001908152602001600020600201805480602002602001604051908101604052809291908181526020018280548015612c5b57602002820191906000526020600020905b815481526020019060010190808311612c47575b50505050509050919050565b60018181548110612c7757600080fd5b906000526020600020016000915054906101000a900473ffffffffffffffffffffffffffffffffffffffff1681565b604051806108a00160405280604590602082028036833780820191505090505090565b6040518060c00160405280600690602082028036833780820191505090505090565b5080546000825590600052602060002090810190612d099190612d96565b50565b828054828255906000526020600020908101928215612d85579160200282015b82811115612d845782518260006101000a81548173ffffffffffffffffffffffffffffffffffffffff021916908373ffffffffffffffffffffffffffffffffffffffff16021790555091602001919060010190612d2c565b5b509050612d929190612d96565b5090565b5b80821115612daf576000816000905550600101612d97565b5090565b6000819050919050565b612dc681612db3565b82525050565b6000602082019050612de16000830184612dbd565b92915050565b60008115159050919050565b612dfc81612de7565b82525050565b6000602082019050612e176000830184612df3565b92915050565b6000604051905090565b600080fd5b600080fd5b600073ffffffffffffffffffffffffffffffffffffffff82169050919050565b6000612e5c82612e31565b9050919050565b612e6c81612e51565b8114612e7757600080fd5b50565b600081359050612e8981612e63565b92915050565b600060208284031215612ea557612ea4612e27565b5b6000612eb384828501612e7a565b91505092915050565b612ec581612e51565b82525050565b6000602082019050612ee06000830184612ebc565b92915050565b600081519050919050565b600082825260208201905092915050565b6000819050602082019050919050565b600081519050919050565b600082825260208201905092915050565b60005b83811015612f4c578082015181840152602081019050612f31565b60008484015250505050565b6000601f19601f8301169050919050565b6000612f7482612f12565b612f7e8185612f1d565b9350612f8e818560208601612f2e565b612f9781612f58565b840191505092915050565b6000612fae8383612f69565b905092915050565b6000602082019050919050565b6000612fce82612ee6565b612fd88185612ef1565b935083602082028501612fea85612f02565b8060005b8581101561302657848403895281516130078582612fa2565b945061301283612fb6565b925060208a01995050600181019050612fee565b50829750879550505050505092915050565b600060208201905081810360008301526130528184612fc3565b905092915050565b600060069050919050565b600081905092915050565b6000819050919050565b61308381612db3565b82525050565b6000613095838361307a565b60208301905092915050565b6000602082019050919050565b6130b78161305a565b6130c18184613065565b92506130cc82613070565b8060005b838110156130fd5781516130e48782613089565b96506130ef836130a1565b9250506001810190506130d0565b505050505050565b600060c08201905061311a60008301846130ae565b92915050565b61312981612db3565b811461313457600080fd5b50565b60008135905061314681613120565b92915050565b6000806040838503121561316357613162612e27565b5b600061317185828601612e7a565b925050602061318285828601613137565b9150509250929050565b600081519050919050565b600082825260208201905092915050565b6000819050602082019050919050565b6000602082019050919050565b60006131d08261318c565b6131da8185613197565b93506131e5836131a8565b8060005b838110156132165781516131fd8882613089565b9750613208836131b8565b9250506001810190506131e9565b5085935050505092915050565b6000602082019050818103600083015261323d81846131c5565b905092915050565b60006020828403121561325b5761325a612e27565b5b600061326984828501613137565b91505092915050565b600080fd5b7f4e487b7100000000000000000000000000000000000000000000000000000000600052604160045260246000fd5b6132af82612f58565b810181811067ffffffffffffffff821117156132ce576132cd613277565b5b80604052505050565b60006132e1612e1d565b90506132ed82826132a6565b919050565b600067ffffffffffffffff82111561330d5761330c613277565b5b602082029050919050565b600080fd5b600061333061332b846132f2565b6132d7565b9050806020840283018581111561334a57613349613318565b5b835b81811015613373578061335f8882613137565b84526020840193505060208101905061334c565b5050509392505050565b600082601f83011261339257613391613272565b5b600661339f84828561331d565b91505092915050565b600060c082840312156133be576133bd612e27565b5b60006133cc8482850161337d565b91505092915050565b60006133e082612e31565b9050919050565b6133f0816133d5565b82525050565b600060208201905061340b60008301846133e7565b92915050565b600082825260208201905092915050565b7f546869732066756e6374696f6e206973206f6e6c7920666f7220746865204c6f60008201527f7474657279204f70657261746f72000000000000000000000000000000000000602082015250565b600061347e602e83613411565b915061348982613422565b604082019050919050565b600060208201905081810360008301526134ad81613471565b9050919050565b7f4c6f7474657279206973206e6f742061637469766520617420746865206d6f6d60008201527f656e740000000000000000000000000000000000000000000000000000000000602082015250565b6000613510602383613411565b915061351b826134b4565b604082019050919050565b6000602082019050818103600083015261353f81613503565b9050919050565b7f4e487b7100000000000000000000000000000000000000000000000000000000600052603260045260246000fd5b7f4e487b7100000000000000000000000000000000000000000000000000000000600052601160045260246000fd5b60006135af82612db3565b91506135ba83612db3565b92508282019050808211156135d2576135d1613575565b5b92915050565b60006135e382612db3565b91507fffffffffffffffffffffffffffffffffffffffffffffffffffffffffffffffff820361361557613614613575565b5b600182019050919050565b6000819050919050565b600061364561364061363b84612e31565b613620565b612e31565b9050919050565b60006136578261362a565b9050919050565b60006136698261364c565b9050919050565b6136798161365e565b82525050565b7f506c617965722068617320726563656976656420686973207072697a65000000600082015250565b60006136b5601d83613411565b91506136c08261367f565b602082019050919050565b60006060820190506136e06000830185613670565b81810360208301526136f1816136a8565b90506137006040830184612dbd565b9392505050565b60008151905061371681613120565b92915050565b60006020828403121561373257613731612e27565b5b600061374084828501613707565b91505092915050565b600060408201905061375e6000830185613670565b61376b6020830184612dbd565b9392505050565b7f526566756e64204c6f7474657279204f70657261746f72000000000000000000600082015250565b60006137a8601783613411565b91506137b382613772565b602082019050919050565b600060408201905081810360008301526137d78161379b565b90506137e66020830184612dbd565b92915050565b7f546f6f206561726c7920746f2064726177206e756d6265727300000000000000600082015250565b6000613822601983613411565b915061382d826137ec565b602082019050919050565b6000602082019050818103600083015261385181613815565b9050919050565b7f596f75206861766520616c726561647920647261776e206e756d626572732100600082015250565b600061388e601f83613411565b915061389982613858565b602082019050919050565b600060208201905081810360008301526138bd81613881565b9050919050565b6000819050919050565b6138df6138da82612db3565b6138c4565b82525050565b60006138f182866138ce565b60208201915061390182856138ce565b60208201915061391182846138ce565b602082019150819050949350505050565b7f4e487b7100000000000000000000000000000000000000000000000000000000600052601260045260246000fd5b600061395c82612db3565b915061396783612db3565b92508261397757613976613922565b5b828206905092915050565b600061398d82612db3565b915061399883612db3565b92508282039050818111156139b0576139af613575565b5b92915050565b7f4c6f7474657279204f70657261746f722068617320647261776e20746865207760008201527f696e6e696e67206e756d6265727321204c65742773207365652074686520776960208201527f6e6e657273000000000000000000000000000000000000000000000000000000604082015250565b6000613a38604583613411565b9150613a43826139b6565b606082019050919050565b60006020820190508181036000830152613a6781613a2b565b9050919050565b600060069050919050565b6000819050919050565b60008160001c9050919050565b6000819050919050565b6000613aad613aa883613a83565b613a90565b9050919050565b6000613ac08254613a9a565b9050919050565b6000600182019050919050565b613add81613a6e565b613ae78184613065565b9250613af282613a79565b8060005b83811015613b2a57613b0782613ab4565b613b118782613089565b9650613b1c83613ac7565b925050600181019050613af6565b505050505050565b600060c082019050613b476000830184613ad4565b92915050565b600067ffffffffffffffff821115613b6857613b67613277565b5b602082029050602081019050919050565b600080fd5b600067ffffffffffffffff821115613b9957613b98613277565b5b613ba282612f58565b9050602081019050919050565b6000613bc2613bbd84613b7e565b6132d7565b905082815260208101848484011115613bde57613bdd613b79565b5b613be9848285612f2e565b509392505050565b600082601f830112613c0657613c05613272565b5b8151613c16848260208601613baf565b91505092915050565b6000613c32613c2d84613b4d565b6132d7565b90508083825260208201905060208402830185811115613c5557613c54613318565b5b835b81811015613c9c57805167ffffffffffffffff811115613c7a57613c79613272565b5b808601613c878982613bf1565b85526020850194505050602081019050613c57565b5050509392505050565b600082601f830112613cbb57613cba613272565b5b8151613ccb848260208601613c1f565b91505092915050565b600060208284031215613cea57613ce9612e27565b5b600082015167ffffffffffffffff811115613d0857613d07612e2c565b5b613d1484828501613ca6565b91505092915050565b6000613d2882612db3565b9150613d3383612db3565b9250817fffffffffffffffffffffffffffffffffffffffffffffffffffffffffffffffff0483118215151615613d6c57613d6b613575565b5b828202905092915050565b7f4c6f747465727920636c6f736564206265666f72652064726177696e673a205060008201527f6c6179657220726566756e646564210000000000000000000000000000000000602082015250565b6000613dd3602f83613411565b9150613dde82613d77565b604082019050919050565b60006060820190508181036000830152613e0281613dc6565b9050613e116020830185613670565b613e1e6040830184612dbd565b9392505050565b7f4c6f7474657279204f70657261746f722068617320636c6f736564207468652060008201527f4c6f747465727921200000000000000000000000000000000000000000000000602082015250565b6000613e81602983613411565b9150613e8c82613e25565b604082019050919050565b60006020820190508181036000830152613eb081613e74565b9050919050565b7f4c6f7474657279204f70657261746f7220686173206d696e7465642061206e6560008201527f77204e465420546f6b656e000000000000000000000000000000000000000000602082015250565b6000613f13602b83613411565b9150613f1e82613eb7565b604082019050919050565b60006040820190508181036000830152613f4281613f06565b9050613f516020830184612dbd565b92915050565b7f526f756e64206973206e6f74206163746976652c207761697420666f72206e6560008201527f77206f6e65210000000000000000000000000000000000000000000000000000602082015250565b6000613fb3602683613411565b9150613fbe82613f57565b604082019050919050565b60006020820190508181036000830152613fe281613fa6565b9050919050565b7f4e656564206d6f7265206777656920746f206275792061207469636b65742100600082015250565b600061401f601f83613411565b915061402a82613fe9565b602082019050919050565b6000602082019050818103600083015261404e81614012565b9050919050565b7f526f756e64206973206f7665722c20747279206c617465720000000000000000600082015250565b600061408b601883613411565b915061409682614055565b602082019050919050565b600060208201905081810360008301526140ba8161407e565b9050919050565b7f596f75206d7573742063686f69636520736978206e756d6265727320746f207060008201527f6c61792100000000000000000000000000000000000000000000000000000000602082015250565b600061411d602483613411565b9150614128826140c1565b604082019050919050565b6000602082019050818103600083015261414c81614110565b9050919050565b7f4e756d626572206f7574206f662072616e67653a20312d363900000000000000600082015250565b6000614189601983613411565b915061419482614153565b602082019050919050565b600060208201905081810360008301526141b88161417c565b9050919050565b7f4475706c696361746564206e756d62657220617265206e6f7420616c6c6f776560008201527f6400000000000000000000000000000000000000000000000000000000000000602082015250565b600061421b602183613411565b9150614226826141bf565b604082019050919050565b6000602082019050818103600083015261424a8161420e565b9050919050565b7f4e756d626572206f7574206f662072616e67653a20312d323600000000000000600082015250565b6000614287601983613411565b915061429282614251565b602082019050919050565b600060208201905081810360008301526142b68161427a565b9050919050565b7f4e6577205469636b657420626f75676874206279207468652075736572210000600082015250565b60006142f3601e83613411565b91506142fe826142bd565b602082019050919050565b60006101008201905061431f6000830185612ebc565b8181036020830152614330816142e6565b905061433f60408301846130ae565b9392505050565b7f576169742074686520656e64206f662070726576696f757320726f756e64206260008201527f65666f7265207374617274696e672061206e6577206f6e650000000000000000602082015250565b60006143a2603883613411565b91506143ad82614346565b604082019050919050565b600060208201905081810360008301526143d181614395565b9050919050565b7f596f75206d7573742067697665207072697a6520746f20706c6179657273206260008201527f65666f7265207374617274696e672061206e657720726f756e64000000000000602082015250565b6000614434603a83613411565b915061443f826143d8565b604082019050919050565b6000602082019050818103600083015261446381614427565b9050919050565b7f4e657720726f756e64206973206f6e2100000000000000000000000000000000600082015250565b60006144a0601083613411565b91506144ab8261446a565b602082019050919050565b600060608201905081810360008301526144cf81614493565b90506144de6020830185612dbd565b6144eb6040830184612dbd565b939250505056fea26469706673582212208684594662af5f694c0d298f1f34069edfb077ff8609a58e88d74169dc2a5f1764736f6c63430008100033",
  "immutableReferences": {},
  "source": "// SPDX-License-Identifier: MIT\n\npragma solidity ^0.8.11;\n\nimport \"./nftKitty.sol\";\n\nstruct PlayerAccountTickets{\n    mapping (uint => uint []) ticketList; //for each key, it contains the 5 numbers + special number\n    uint nTicket; //tot ticket\n    uint [] nMatches; //for each ticket, store the number of matches\n    uint [] nMatchesPB; //for each ticket, store if the special number has been found\n}\n\n// Interface to communicate with nftKitty contract\ninterface IKitty {\n    function mint(uint class) external;\n    function getTokenOfClass(uint class) external view returns(uint);\n    function awardItem(address player, uint256 tokenId) external;\n    function setLotteryAddress(address _lottery) external;\n    function getNFTsFromAddress(address addr) external view returns(string[] memory);\n}\n\ncontract Lottery {\n    address public lotteryOperator;\n    //lottery players\n    address payable[] public players; \n    // addr. of kinnyNFT contract\n    address public kittyAddress; \n    mapping (address => PlayerAccountTickets) public playersTickets; \n    //to know if the round is active or not\n    bool public isActive; \n    //to know if the lottery is active or not\n    bool public isLotteryActive; \n    //duration of each round\n    uint public duration; \n    //it contains the number of the last block of the round\n    uint public roundClosing; \n    //number of the first block related to a specific round\n    uint public blockNumber; \n    //numbers drawn each round\n    uint [6] public numbersDrawn; \n    //parameter\n    uint public valueK; \n    //to know if the prize has been given to the players or not\n    bool public prizeGiven;\n    //price of the ticket\n    uint public ticketPrice;\n    \n    //nft\n    IKitty nft;\n\n    constructor(uint _K, uint _duration,uint price, address kittyAddr, address _lotteryOperator) {\n        lotteryOperator = _lotteryOperator;\n        isActive = false;\n        isLotteryActive = true;\n        valueK = _K;\n        duration = _duration;\n        prizeGiven = true;\n        nft = IKitty(kittyAddr);\n        ticketPrice = price * (1 gwei);\n\n        for(uint i=0; i<8;i++){\n          nft.mint(i+1);\n        }\n\n    }\n\n    //event log\n    event newRound(string result, uint start, uint end);\n    event newTicketBought(address buyer,string result,uint[6] _numbers);\n    event newDrawn(string result);\n    event givePrizeToPlayers(address winningPlayer, string result, uint _prizeToGive);\n    event mintNewNft(string result, uint nftClass);\n    event closeLotteryEvent(string result);\n    event closeLotteryAndRefund(string result, address buyer, uint _refund);\n    event winningNumbers(uint[6] _numbers);\n    event refundLotteryOperator(string result, uint value);\n\n    //this function uses the function mint from the contract nft_kitty.sol\n    function mint(uint _classNFT) public {\n        require(isLotteryActive == true, \"Lottery is not active at the moment\");\n        require(msg.sender == lotteryOperator, \"This function is only for the Lottery Operator\");\n        nft.mint(_classNFT);\n        emit mintNewNft(\"Lottery Operator has minted a new NFT Token\", _classNFT);\n    }\n\n    //start a new round\n    function startNewRound() public  {\n        require(msg.sender == lotteryOperator, \"This function is only for the Lottery Operator\");\n        require(isLotteryActive == true, \"Lottery is not active at the moment\");\n        require(isActive == false, \"Wait the end of previous round before starting a new one\");\n        require(prizeGiven == true, \"You must give prize to players before starting a new round\");\n\n        prizeGiven = false;\n        isActive = true;\n        blockNumber = block.number; //get the block number\n        roundClosing = blockNumber + duration; //round lasts from the first block up to the n' block\n\n        //remove all tickets bought by players in the previous round\n        for(uint i = 0; i < players.length; i++){\n            uint tickNumb = playersTickets[players[i]].nTicket;\n            for(uint j = 1; j <= tickNumb; j++){\n                delete playersTickets[players[i]].ticketList[j];\n            }\n            playersTickets[players[i]].nTicket = 0;\n            delete playersTickets[players[i]].nMatches;\n            delete playersTickets[players[i]].nMatchesPB;\n        }\n\n        players = new address payable[](0); //remove all previous players\n\n        emit newRound(\"New round is on!\", block.number, roundClosing);\n\n    }\n\n    //Allows users to buy a ticket. The numbers picked by a user in \n    //that ticket are passed as input of the function. The function checks \n    //if there is a round active, otherwise the function returns an error code.\n    function buy(uint [6] memory _numbers) public payable returns (bool){\n        require(isLotteryActive == true, \"Lottery is not active at the moment\"); \n        require(isActive == true, \"Round is not active, wait for new one!\");       \n        require(msg.value == ticketPrice, \"Need more gwei to buy a ticket!\"); //require to enter the lottery and buy a ticket\n        require(block.number <= roundClosing, \"Round is over, try later\");\n\n        //check if the numbers are 6\n        uint nlen = _numbers.length;\n        require( nlen == 6, \"You must choice six numbers to play!\");\n\n        //array of boolean to check numbers repetition\n        bool[69] memory pickedNumbers;\n        for( uint i = 0; i < 69;i++)\n            pickedNumbers[i] = false;\n\n        for( uint i = 0; i < nlen; i++){\n            if(i != 5){\n                require( _numbers[i] >= 1 && _numbers[i] <= 69, \"Number out of range: 1-69\");\n                require( !pickedNumbers[_numbers[i]-1], \"Duplicated number are not allowed\" );\n\n                pickedNumbers[_numbers[i]-1] = true;\n            }\n            else {\n                require( _numbers[i] >= 1 && _numbers[i] <= 26, \"Number out of range: 1-26\");\n\n                pickedNumbers[_numbers[i]-1] = true;\n            }\n        }\n        \n        playersTickets[msg.sender].nTicket += 1; //add new ticket to the list\n        uint num = playersTickets[msg.sender].nTicket; //get the total numbers of tickets for that player\n\n        if ( num == 1 )\n            players.push(payable(msg.sender)); //add the player to the array if not already present\n        \n        for(uint i = 0; i < 6; i++)\n            playersTickets[msg.sender].ticketList[num].push(_numbers[i]); //add the ticket\n        \n        emit newTicketBought(msg.sender,\"New Ticket bought by the user!\",_numbers);\n\n        return true;\n    }\n\n    //used by the lottery operator to draw numbers of the current lottery round\n    function drawNumbers() public { \n        require(msg.sender == lotteryOperator, \"This function is only for the Lottery Operator\");\n        require(isLotteryActive == true, \"Lottery is not active at the moment\");\n        require(block.number >= roundClosing + valueK, \"Too early to draw numbers\");\n        require(!prizeGiven, \"You have already drawn numbers!\");\n\n        isActive = false; //stop the current round and start to drawn the numbers\n\n        bool[69] memory pickedNumbers;\n        for( uint i = 0; i < 69;i++)\n            pickedNumbers[i] = false;\n\n        //blockhash removed due to some problems with remix\n        //bytes32 bhash = blockhash(duration + valueK);\n\n        //take the block.difficulty, block.timestamp and duration+K as source of entropy to draw numbers\n        bytes32 bhash = keccak256(abi.encodePacked(block.difficulty, block.timestamp, duration + valueK));\n        bytes memory bytesArray = new bytes(32);\n        \n        for (uint i=0; i<6; i++){ \n\n            for (uint j = 0; j <32; j++)\n                bytesArray[j] = bhash[j];\n\n            bytes32 rand = keccak256(bytesArray);\n            \n\n            uint x = (uint(rand) % 69) + 1;\n            numbersDrawn[i] = x;\n            //check if the number is repeated or not\n            if( pickedNumbers[x-1] )\n                i -= 1;\n            else {\n                pickedNumbers[x-1] = true;\n            }\n\n            if( i == 5)\n                numbersDrawn[5] = (uint(rand) % 26) + 1; //powerball number\n\n            bhash = bhash ^ rand; //xor for each position in bhash\n\n        }\n\n        emit newDrawn(\"Lottery Operator has drawn the winning numbers! Let's see the winners\");\n        emit winningNumbers(numbersDrawn);\n\n        //To test using lottery_test.js, this function call must be commented\n        //this due to some problems with the IDE REMIX which crash due to lack of memory\n        givePrizes();\n\n    }\n\n    //check the winners of the lottery by inspecting all the tickets\n    //This function is used by lottery operator to distribute the prizes of the current lottery round\n    //inspect all the result in playersTickets and gives the prize to the player\n    //if one prize has been already assigned to a player, will be generated a new one of the same rank\n    function givePrizes() public {\n        require(msg.sender == lotteryOperator, \"This function is only for the Lottery Operator\");\n        require(isLotteryActive == true, \"Lottery is not active at the moment\");\n        \n        //for each player in the lottery round\n        for (uint i = 0; i < players.length; i++){ \n            //for each ticket\n            for ( uint j = 1; j <= playersTickets[players[i]].nTicket; j++){ \n                uint totMatch = 0;\n                for ( uint k = 0; k < 6; k++ ){\n\n                    if ( k == 5 ){ //powerball match\n                        if ( numbersDrawn[k] == playersTickets[players[i]].ticketList[j][k] )\n                            playersTickets[players[i]].nMatchesPB.push(1);\n                        else\n                            playersTickets[players[i]].nMatchesPB.push(0);\n                         //update the total amount of matches for \"normal\" numbers\n                        playersTickets[players[i]].nMatches.push(totMatch);\n                        break;\n                    }\n                    \n                    for (uint z = 0; z < 5; z++){//normal numbers matches\n                        if ( numbersDrawn[k] == playersTickets[players[i]].ticketList[j][z] ){\n                                totMatch += 1;\n                                break;\n                        }\n                    }\n                }\n            }\n        }\n\n        //assign the prizes\n        for (uint i = 0; i < players.length; i++){ //for each player in the lottery round\n            for ( uint j = 0; j < playersTickets[players[i]].nTicket; j++){ //for each ticket\n                uint match1 = playersTickets[players[i]].nMatches[j];\n                uint match2 = playersTickets[players[i]].nMatchesPB[j];\n                uint prizeToAssign;\n\n                if(match1 == 0 && match2 == 0) //no matches -> skip \n                    continue;\n\n                if (match1 == 5 && match2 == 1)\n                    prizeToAssign = 1;\n                else if ( match1 == 5 && match2 == 0)\n                    prizeToAssign = 2;\n                else if (match1 == 4 && match2 == 1)\n                    prizeToAssign = 3;\n                else if (match1 == 4 && match2 == 0)\n                    prizeToAssign = 4;\n                else if (match1 == 3 && match2 == 1)\n                    prizeToAssign = 4;\n                else if (match1 == 3 && match2 == 0)\n                    prizeToAssign = 5;\n                else if (match1 == 2 && match2 == 1)\n                    prizeToAssign = 5;\n                else if (match1 == 2 && match2 == 0)\n                    prizeToAssign = 6;\n                else if (match1 == 1 && match2 == 1)\n                    prizeToAssign = 6;\n                else if (match1 == 1 && match2 == 0)\n                    prizeToAssign = 7;\n                else if (match1 == 0 && match2 == 1)\n                    prizeToAssign = 8;\n\n                emit givePrizeToPlayers(players[i],\"Player has received his prize\", prizeToAssign );\n\n                //assign the prize and mint a new one of same class/rank\n                uint tokendIdWin = nft.getTokenOfClass(prizeToAssign);\n                nft.awardItem(players[i],tokendIdWin);\n                mint(prizeToAssign);\n\n            }\n        }        \n\n        prizeGiven = true;\n        uint balance = address(this).balance;\n        payable(lotteryOperator).transfer(address(this).balance);//refund lottery operator\n        emit refundLotteryOperator(\"Refund Lottery Operator\", balance);\n\n    }\n\n    //close the lottery\n    function closeLottery() public {\n        require(msg.sender == lotteryOperator, \"This function is only for the Lottery Operator\");\n        require(isLotteryActive == true, \"Lottery is not active at the moment\");\n\n        isLotteryActive = false; //deactivate the lottery\n        //refund players if the lottery is closed before the drawn of the numbers\n        if(isActive && !prizeGiven){\n            for(uint i = 0; i < players.length; i++){\n                players[i].transfer(ticketPrice*playersTickets[players[i]].nTicket);\n                emit closeLotteryAndRefund(\"Lottery closed before drawing: Player refunded!\", players[i], ticketPrice*playersTickets[players[i]].nTicket);\n            }\n            isActive = false;\n        }\n\n        emit closeLotteryEvent(\"Lottery Operator has closed the Lottery! \");\n    }\n\n    /*Some useful function to manage the lottery in front end*/\n\n    //function use by front-end to retrieve the winning numbers\n    function getWinningNumbers() public view returns (uint[6] memory){\n        return numbersDrawn;\n    }\n\n    //return the numbers of players in the current round\n    function getPlayers() public view returns(uint){\n        return players.length;\n    }\n\n    //Return all the tickets related to addr to update fron-end interface\n    function getTicketList(address addr, uint index) public view returns(uint[] memory){\n       return playersTickets[addr].ticketList[index];\n    }\n\n    function getTotTickets(address addr) public view returns(uint){\n        return playersTickets[addr].nTicket;\n    }\n\n    //use to retrieve all the nft associated to an user\n    function getWonNFTsFromAddress(address addr) public view returns(string[] memory){\n        return nft.getNFTsFromAddress(addr);\n    }\n\n    //usefull function for debugging\n\n    function getMatch(address addr) public view returns(uint[] memory){\n       return playersTickets[addr].nMatches;\n    }\n\n    function getMatchPB(address addr) public view returns(uint[] memory){\n       return playersTickets[addr].nMatchesPB;\n    }\n\n    function getRank(uint _class) public view returns(uint){\n        return nft.getTokenOfClass(_class);\n    }\n\n}\n",
  "sourcePath": "/home/davi/Desktop/p2p_blockchain/dapp-morucci/contracts/Lottery.sol",
  "compiler": {
    "name": "solc",
    "version": "0.8.16+commit.07a7930e.Emscripten.clang"
  },
  "schemaVersion": "3.4.11",
  "updatedAt": "2023-01-25T09:30:02.666Z",
  "devdoc": {
    "kind": "dev",
    "methods": {},
    "version": 1
  },
  "userdoc": {
    "kind": "user",
    "methods": {},
    "version": 1
  }
}